:100000000C942A000C9447000C9447000C94470071
:100010000C94930C0C94600B0C947C0A0C94030CC1
:100020000C944B0C0C94160B0C94B20B0C94C20A4F
:100030000C9447000C9447000C9447000C94470024
:100040000C9447000C9447000C9447000C94470014
:100050000C94470011241FBECFE5D8E0DEBFCDBF12
:1000600011E0A0E6B0E0E8EAF9E302C005900D92E5
:10007000A03AB107D9F711E0A0EAB1E001C01D92A2
:10008000A83CB107E1F70E94BE070C94D21C0C9467
:1000900000001ABA83E087BB8FEF84BB83E981BB82
:1000A00080EE8BBB8EED88BB89E585BB8EE582BB80
:1000B00081E090E00895843018F023E030E01AC029
:1000C000813069F0813038F0823069F0833079F026
:1000D00021E030E00FC06ABB21E030E00BC067BB1D
:1000E00021E030E007C064BB21E030E003C061BB29
:1000F00021E030E0822F932F0895843018F023E020
:1001000030E01AC0813069F0813038F0823069F017
:10011000833079F021E030E00FC06BBB21E030E0AC
:100120000BC068BB21E030E007C065BB21E030E0D8
:1001300003C062BB21E030E0822F932F089584300A
:1001400018F023E030E02AC0813089F0813038F0A7
:100150008230A9F08330D9F021E030E01FC0EBE31A
:10016000F0E080818095808321E030E017C0E8E3F3
:10017000F0E080818095808321E030E00FC0E5E3EE
:10018000F0E080818095808321E030E007C0E2E3E9
:10019000F0E080818095808321E030E0822F932FF2
:1001A0000895FB016115710519F422E030E023C0C8
:1001B000843018F023E030E01EC0813071F08130CF
:1001C00038F0823079F0833091F021E030E013C0D4
:1001D00089B3808321E030E00EC086B3808321E0C4
:1001E00030E009C083B3808321E030E004C080B3F5
:1001F000808321E030E0822F932F0895843008F02F
:100200007EC0683008F07BC0423008F078C0813092
:1002100029F1813040F08230E1F1833009F454C09B
:1002200021E030E06EC0EAE3F0E0208181E090E080
:10023000062E02C0880F991F0A94E2F78095822348
:1002400080832081842F90E002C0880F991F6A95D7
:10025000E2F7282B208321E030E053C0E7E3F0E011
:10026000208181E090E0062E02C0880F991F0A9439
:10027000E2F78095822380832081842F90E002C062
:10028000880F991F6A95E2F7282B208321E030E040
:1002900038C0E4E3F0E0208181E090E0062E02C067
:1002A000880F991F0A94E2F780958223808320812A
:1002B000842F90E002C0880F991F6A95E2F7282BDF
:1002C000208321E030E01DC0E1E3F0E0208181E007
:1002D00090E0062E02C0880F991F0A94E2F78095DD
:1002E000822380832081842F90E002C0880F991F91
:1002F0006A95E2F7282B208321E030E002C023E05A
:1003000030E0822F932F0895843008F07EC068304B
:1003100008F07BC0423008F078C0813029F181308C
:1003200040F08230E1F1833009F454C021E030E044
:100330006EC0EBE3F0E0208181E090E0062E02C089
:10034000880F991F0A94E2F7809582238083208189
:10035000842F90E002C0880F991F6A95E2F7282B3E
:10036000208321E030E053C0E8E3F0E0208181E029
:1003700090E0062E02C0880F991F0A94E2F780953C
:10038000822380832081842F90E002C0880F991FF0
:100390006A95E2F7282B208321E030E038C0E5E3BE
:1003A000F0E0208181E090E0062E02C0880F991FC6
:1003B0000A94E2F78095822380832081842F90E045
:1003C00002C0880F991F6A95E2F7282B208321E04D
:1003D00030E01DC0E2E3F0E0208181E090E0062EF5
:1003E00002C0880F991F0A94E2F7809582238083C8
:1003F0002081842F90E002C0880F991F6A95E2F750
:10040000282B208321E030E002C023E030E0822F5F
:10041000932F0895843008F04AC0683008F047C030
:100420008130C1F0813038F0823019F1833081F1B0
:1004300021E030E03EC0EBE3F0E0208181E090E09D
:1004400002C0880F991F6A95E2F72827208321E0D0
:1004500030E02FC0E8E3F0E0208181E090E002C0CE
:10046000880F991F6A95E2F72827208321E030E062
:1004700020C0E5E3F0E0208181E090E002C0880F39
:10048000991F6A95E2F72827208321E030E011C008
:10049000E2E3F0E0208181E090E002C0880F991F44
:1004A0006A95E2F72827208321E030E002C023E0AC
:1004B00030E0822F932F0895FA014115510519F468
:1004C00022E030E043C0843008F03EC0683008F0DD
:1004D0003BC08130A9F0813038F08230E9F08330C0
:1004E00039F121E030E032C089B390E002C0959547
:1004F00087956A95E2F78170808321E030E026C01D
:1005000086B390E002C0959587956A95E2F7817071
:10051000808321E030E01AC083B390E002C095955B
:1005200087956A95E2F78170808321E030E00EC004
:1005300080B390E002C0959587956A95E2F7817047
:10054000808321E030E002C023E030E0822F932F4F
:1005500008958F929F92AF92BF92CF92DF92EF92C7
:10056000FF920F931F93823018F023E030E0FDC01C
:10057000282F30E0F901EE0FFF1FCF01880F991FE0
:10058000880F991F880F991FE80FF91FE20FF31FBB
:10059000EE58FF4FE081E73009F066C08901000F97
:1005A000111FC801880F991F880F991F880F991F65
:1005B000080F191F020F131F005A1F4FF8018081E7
:1005C000618140E00E9484015C01F80182816381C5
:1005D00040E00E9484017C01F8018481658140E053
:1005E0000E9484016C01F8018681678140E00E94CD
:1005F0008401882EF8018085618540E00E94840195
:10060000982EF8018285638540E00E948401EE0CFB
:10061000FF1CEE0CFF1CEE0CFF1C0024D694C794AC
:100620000794D694C7940794DC2CC02CEC28FD28A2
:10063000EA28FB28382D330F20E0E22AF32A392D4F
:100640003295307F20E0E22AF32A382F379533277E
:10065000379520E04701822A932AF8018485658531
:1006600040E00E9484016AC0E63019F024E030E0E6
:100670007CC08901000F111FC801880F991F880FC6
:10068000991F880F991F080F191F020F131F005A77
:100690001F4FF8018081618141E00E9484015C016B
:1006A000F8018281638141E00E9484017C01F801AC
:1006B0008481658141E00E9484016C01F80186819A
:1006C000678141E00E948401882EF8018085618560
:1006D00041E00E948401982EF8018285638541E003
:1006E0000E948401EE0CFF1CEE0CFF1CEE0CFF1CA4
:1006F0000024D694C7940794D694C7940794DC2C0E
:10070000C02CEC28FD28EA28FB28382D330F20E0E8
:10071000E22AF32A392D3295307F20E0E22AF32AAB
:10072000382F37953327379520E04701822A932ABF
:10073000F8018485658541E00E94840120E030E075
:10074000C401022E02C0969587950A94E2F787703D
:100750009070019719F020E030E007C02D5F3F4F07
:100760002531310569F721E030E0822F932F1F9169
:100770000F91FF90EF90DF90CF90BF90AF909F9040
:100780008F900895823018F023E030E04EC0282F7B
:1007900030E0F901EE0FFF1FCF01880F991F880F7E
:1007A000991F880F991FE80FF91FE20FF31FE059F7
:1007B000FF4F40814132B9F1F901EE0FFF1FCF0128
:1007C000880F991F880F991F880F991FE80FF91F2D
:1007D000E20FF31FEF58FF4F6081613221F1F90101
:1007E000EE0FFF1FCF01880F991F880F991F880FE9
:1007F000991FE80FF91FE20FF31FEE58FF4F80819A
:10080000873031F4842F40E00E9484019C010DC0A8
:10081000863019F024E030E008C0842F41E00E94C7
:1008200084019C0102C025E030E0822F932F0895BF
:10083000823018F023E030E04EC0282F30E0F9017C
:10084000EE0FFF1FCF01880F991F880F991F880F88
:10085000991FE80FF91FE20FF31FE059FF4F408186
:100860004132B9F1F901EE0FFF1FCF01880F991F37
:10087000880F991F880F991FE80FF91FE20FF31FC8
:10088000EF58FF4F6081613221F1F901EE0FFF1F38
:10089000CF01880F991F880F991F880F991FE80FA4
:1008A000F91FE20FF31FEE58FF4F8081873031F4BC
:1008B000842F41E00E9484019C010DC0863019F014
:1008C00024E030E008C0842F40E00E9484019C01B5
:1008D00002C025E030E0822F932F0895823018F077
:1008E00023E030E04BC0282F30E0F901EE0FFF1F6E
:1008F000CF01880F991F880F991F880F991FE80F44
:10090000F91FE20FF31FE259FF4F40814132A1F17D
:10091000F901EE0FFF1FCF01880F991F880F991F54
:10092000880F991FE80FF91FE20FF31FE159FF4FDE
:100930006081613209F1F901EE0FFF1FCF01880FCD
:10094000991F880F991F880F991FE80FF91FE20F51
:10095000F31FEE58FF4F8081873031F4842F41E040
:100960000E9484019C010AC0863031F4842F40E04B
:100970000E9484019C0102C024E030E0822F932F6A
:100980000895823018F023E030E04BC0282F30E08B
:10099000F901EE0FFF1FCF01880F991F880F991FD4
:1009A000880F991FE80FF91FE20FF31FE259FF4F5D
:1009B00040814132A1F1F901EE0FFF1FCF01880FF5
:1009C000991F880F991F880F991FE80FF91FE20FD1
:1009D000F31FE159FF4F6081613209F1F901EE0F18
:1009E000FF1FCF01880F991F880F991F880F991F2C
:1009F000E80FF91FE20FF31FEE58FF4F8081873099
:100A000031F4842F40E00E9484019C010AC08630AA
:100A100031F4842F41E00E9484019C0102C024E053
:100A200030E0822F932F08955F926F927F928F9282
:100A30009F92AF92BF92CF92DF92EF92FF920F936D
:100A40001F936A3008F044C1823008F041C1282F5A
:100A500030E0F901EE0FFF1FCF01880F991F880FBB
:100A6000991F880F991FE80FF91FE20FF31FEE5827
:100A7000FF4FE081E73009F084C0E6E8F0E0E60FE0
:100A8000F11DB0808901000F111FC801880F991F47
:100A9000880F991F880F991F080F191F020F131F26
:100AA000005A1F4F4B2D4170F801808161810E94D7
:100AB00084014C014B2D46954170F8018281638180
:100AC0000E9484017C014B2D469546954170F801AA
:100AD000848165810E9484016C014B2D4695469569
:100AE00046954170F801868167810E948401782EC5
:100AF0004B2D42954F704170F801808561850E94B1
:100B00008401A82E4B2D4295469547704170F801FF
:100B1000828563850E948401EE0CFF1CEE0CFF1C95
:100B2000EE0CFF1C0024D694C7940794D694C79467
:100B30000794DC2CC02CEC28FD28E828F928372D58
:100B4000330F20E0E22AF32A3A2D3295307F20E05D
:100B5000E22AF32A382F37953327379520E04701CB
:100B6000822A932AB694B694B694B694B694B69460
:100B7000F1E0BF22F801848565854B2D0E94840138
:100B80008FC0E63019F024E030E0A4C0E6E8F0E0E1
:100B9000E60FF11D50808901000F111FC801880F59
:100BA000991F880F991F880F991F080F191F020F8F
:100BB000131F005A1F4FCC24DD24C394452D4C2510
:100BC0004170F801808161810E9484013C01452DC2
:100BD00046954C254170F801828163810E94840111
:100BE0007C01452D469546954C254170F801848140
:100BF00065810E9484015C01452D46954695469588
:100C00004C254170F801868167810E948401882EFD
:100C1000452D42954F704C254170F80180856185C6
:100C20000E948401982E452D4295469547704C258B
:100C30004170F801828563850E948401EE0CFF1CDF
:100C4000EE0CFF1CEE0CFF1C0024B694A794079436
:100C5000B694A7940794BA2CA02CEA28FB28E6287F
:100C6000F728382D330F20E0E22AF32A392D329568
:100C7000307F20E0E22AF32A382F37953327379543
:100C800020E04701822A932A452D429546954695B4
:100C900043704C254170F801848565850E9484016C
:100CA00020E030E0C401022E02C0969587950A9498
:100CB000E2F787709070019719F020E030E00AC0E9
:100CC0002D5F3F4F2531310569F721E030E002C04B
:100CD00023E030E0822F932F1F910F91FF90EF9030
:100CE000DF90CF90BF90AF909F908F907F906F904C
:100CF0005F9008952F923F925F926F927F928F92B2
:100D00009F92AF92BF92CF92DF92EF92FF920F939A
:100D10001F93DF93CF93CDB7DEB728970FB6F89424
:100D2000DEBF0FBECDBF009719F422E030E00CC14A
:100D300098878F83CC24DD245524EE24FF2487015B
:100D4000EF81F8858081618141E00E94FE009E83F1
:100D50008D83EF81F8858281638141E00E94FE00EE
:100D60009C838B83EF81F8858481658141E00E94BB
:100D7000FE009A838983EF81F8858681678141E04F
:100D80000E94FE001C01EF81F8858085618541E0AD
:100D90000E94FE003C01EF81F8858285638541E079
:100DA0000E94FE004C01EF81F8858485658541E055
:100DB0000E94FE005C01EF81F8858685813239F062
:100DC0006785613221F041E00E94FE006C01F1E094
:100DD000CF16D10409F0B7C0EF81F8858089813240
:100DE00059F06189613241F041E00E94FE009C01AE
:100DF0008130910509F0A8C06D817E819B0140E0A2
:100E000050E02E293F29402B512BEB81FC81CF0153
:100E1000A0E0B0E0880F991FAA1FBB1F880F991F81
:100E2000AA1FBB1F880F991FAA1FBB1F282B392B76
:100E30004A2B5B2B69817A81CB01A0E0B0E0880F5F
:100E4000991FAA1FBB1F880F991FAA1FBB1F880FBE
:100E5000991FAA1FBB1F880F991FAA1FBB1F880FAE
:100E6000991FAA1FBB1F880F991FAA1FBB1F282BE2
:100E7000392B4A2B5B2BC101A0E0B0E0072E79E0B3
:100E8000880F991FAA1FBB1F7A95D1F7702D282BA9
:100E9000392B4A2B5B2BC301A0E0B0E0072E7CE08E
:100EA000880F991FAA1FBB1F7A95D1F7702D282B89
:100EB000392B4A2B5B2BC401A0E0B0E0072E7FE06A
:100EC000880F991FAA1FBB1F7A95D1F7702D282B69
:100ED000392B4A2B5B2BC501A0E0B0E0072E72E155
:100EE000880F991FAA1FBB1F7A95D1F7702D790122
:100EF0008A01E82AF92A0A2B1B2B53948F819885A3
:100F0000439698878F8392E0591609F019CF20E015
:100F100030E0D801C701022E04C0B695A795979579
:100F200087950A94D2F787709070A070B07001977F
:100F3000A105B10519F020E030E006C02D5F3F4F5C
:100F40002531310531F79601822F932F28960FB660
:100F5000F894DEBF0FBECDBFCF91DF911F910F91EF
:100F6000FF90EF90DF90CF90BF90AF909F908F90C9
:100F70007F906F905F903F902F90089580E690E073
:100F80000E947A0680E00E946E0481E00E946E0456
:100F900081E00E94C10481E00E94C10481E063E01D
:100FA0000E94140520E137E248EC50E0CA010197A5
:100FB000F1F721503040D1F781E00E946E0420E12A
:100FC00037E248EC50E0CA010197F1F72150304078
:100FD000D1F780E090E00895E3E5F0E080818F7B39
:100FE00080838081877F8083A9E5B0E08C918160D8
:100FF0008C9380818E7F80838081826080838081DA
:101000008B7F808381E090E00895EFE4F0E08081C1
:101010008E7F8083808182608083AEE4B0E08C919B
:1010200088608C938C9180618C9380818F7B80838E
:1010300080818068808380818F7E808380818062D0
:1010400080838C918E7F8C938C9182608C938C9119
:101050008B7F8C938C9180648C93E9E5F0E08081A8
:101060008062808381E090E00895E5E4F0E0808193
:101070008F7B8083808188608083A9E5B0E08C913C
:1010800080688C9380818F7E808380818F7D808338
:1010900080818160808380818D7F808380818B7F50
:1010A000808381E090E008958130A9F0813028F0BC
:1010B0008430F9F024E030E029C0E3E5F0E08081FD
:1010C0008E7F808380818D7F808380818B7F8083F2
:1010D00021E030E01BC0EEE4F0E080818E7F808371
:1010E00080818D7F808380818B7F808321E030E0D1
:1010F0000DC0E5E4F0E080818E7F808380818D7F6C
:10110000808380818B7F808321E030E0822F932F4A
:101110000895813069F0813018F08430B1F40DC049
:101120006F3F710509F088F462BF21E030E00FC025
:101130007DBD6CBD21E030E00AC06F3F710509F054
:1011400020F464BD21E030E002C023E030E0822FD3
:10115000932F0895FB016115710519F422E030E029
:101160001BC0813069F0813028F0843081F023E0A9
:1011700030E012C082B78083118221E030E00CC0E1
:101180008CB59DB59183808321E030E005C084B5A6
:101190008083118221E030E0822F932F08958230E6
:1011A000A1F0833018F4882341F004C0833091F01B
:1011B0008430A9F021E030E01CC06F3F710509F0D8
:1011C000B0F46CBF21E030E014C07BBD6ABD21E00B
:1011D00030E00FC079BD68BD21E030E00AC06F3F4C
:1011E000710509F020F463BD21E030E002C020E089
:1011F00030E0822F932F0895AF92BF92CF92DF926B
:10120000EF92FF920F931F93653618F023E030E0C2
:101210002CC0823019F021E030E027C0BB24CC2460
:10122000DD24EE24FF248701262F3B2D4C2D5D2D40
:101230006E2D7F2D802F912FAA24AA94BB24BA94BF
:10124000CC24DD24EE24FF2400E010E00E94840E74
:101250000F2EF4E6AF2EF02DBB240E94AB0F822F91
:10126000932F9BBD8ABD21E030E0822F932F1F91E9
:101270000F91FF90EF90DF90CF90BF90AF900895C7
:10128000AF92BF92CF92DF92EF92FF920F931F9394
:10129000CF93DF93EC01009719F422E030E035C0E2
:1012A000A090C301B090C4018091C1019091C2018E
:1012B000A81AB90ACC24DD24EE24FF2487012A2DA4
:1012C0003B2D4C2D5D2D6E2D7F2D802F912FAA242F
:1012D0000F2EF2E1BF2EF02D0F2EFAE7CF2EF02DBC
:1012E000DD24EE24FF2400E010E00E94840E0F2E87
:1012F000F4E2BF2EF02D0F2EF4EFCF2EF02D0E9432
:10130000AB0F2883398321E030E0822F932FDF91C8
:10131000CF911F910F91FF90EF90DF90CF90BF90F2
:10132000AF900895AF92BF92CF92DF92EF92FF926B
:101330000F931F93CF93DF93EC01009719F422E0F2
:1013400030E02FC0A090C501B090C601CC24DD24B0
:10135000EE24FF2487012A2D3B2D4C2D5D2D6E2D73
:101360007F2D802F912FAA240F2EF2E1BF2EF02D7A
:101370000F2EFAE7CF2EF02DDD24EE24FF2400E01F
:1013800010E00E94840E0F2EF4E2BF2EF02D0F2EDF
:10139000F4EFCF2EF02D0E94AB0F2883398321E08C
:1013A00030E0822F932FDF91CF911F910F91FF900B
:1013B000EF90DF90CF90BF90AF900895FC01009721
:1013C00019F422E030E01DC02091C5013091C60122
:1013D0006091C3017091C4018091C1019091C201DB
:1013E000681B790B84E690E0AC01249FC001259F27
:1013F000900D349F900D11240E94461C608321E0C3
:1014000030E0822F932F0895853129F0863159F0ED
:1014100027E030E00FC0EEE4F0E08081806480835C
:1014200021E030E007C0EEE4F0E080818F7B808334
:1014300021E030E0822F932F0895E9E5F0E08081EC
:10144000806280830895E9E5F0E080818F7D80836C
:101450000895FC01009719F422E030E006C086B53B
:1014600097B59183808321E030E0822F932F0895F8
:101470006115710519F422E030E03BC08230F1F0D3
:10148000833028F4882361F0813039F410C084302F
:1014900019F18430D0F0853031F123E030E029C0FB
:1014A0007093A1016093A00121E030E022C070930D
:1014B000A3016093A20121E030E01BC07093A5015D
:1014C0006093A40121E030E014C07093A701609301
:1014D000A60121E030E00DC07093A9016093A8013E
:1014E00021E030E006C07093AB016093AA0121E0D7
:1014F00030E0822F932F08951F920F920FB60F9214
:1015000011242F933F938F939F93EF93FF93809199
:10151000C7018F5F8093C701813039F486B597B5D5
:101520009093C2018093C10122C0823069F486B5D4
:1015300097B59093C4018093C301EEE4F0E08081FD
:1015400090E48927808313C0833089F486B597B5EA
:101550002091C3013091C401821B930B9093C6016B
:101560008093C501E9E5F0E080818F7D8083FF9164
:10157000EF919F918F913F912F910F900FBE0F9000
:101580001F9018951F920F920FB60F9211242F9350
:101590003F934F935F936F937F938F939F93AF93FB
:1015A000BF93EF93FF93E091A001F091A1013097D9
:1015B00061F18091B9019091BA01A091BB01B09104
:1015C000BC010196A11DB11D8093B9019093BA0190
:1015D000A093BB01B093BC01209194003091950081
:1015E000409196005091970082179307A407B50782
:1015F00061F41092B9011092BA011092BB011092DD
:10160000BC018091BD0182BF0995FF91EF91BF910F
:10161000AF919F918F917F916F915F914F913F918A
:101620002F910F900FBE0F901F9018951F920F9241
:101630000FB60F9211242F933F934F935F936F93A5
:101640007F938F939F93AF93BF93EF93FF93E0911B
:10165000A201F091A301309711F18091B501909111
:10166000B601A091B701B091B8010196A11DB11DBD
:101670008093B5019093B601A093B701B093B801E0
:101680000197A105B10559F41DBC1CBC1092B50110
:101690001092B6011092B7011092B8010995FF910E
:1016A000EF91BF91AF919F918F917F916F915F91DA
:1016B0004F913F912F910F900FBE0F901F90189553
:1016C0001F920F920FB60F9211242F933F934F93B7
:1016D0005F936F937F938F939F93AF93BF93EF939A
:1016E000FF93E091A801F091A901309751F1809109
:1016F000AD019091AE01A091AF01B091B001019602
:10170000A11DB11D8093AD019093AE01A093AF01D7
:10171000B093B001209190003091910040919200DF
:101720005091930082179307A407B50751F414BC96
:101730001092AD011092AE011092AF011092B00163
:101740000995FF91EF91BF91AF919F918F917F91FB
:101750006F915F914F913F912F910F900FBE0F901E
:101760001F9018951F920F920FB60F9211242F936E
:101770003F934F935F936F937F938F939F93AF9319
:10178000BF93EF93FF93E091A001F091A1013097F7
:1017900049F18091B9019091BA01A091BB01B0913A
:1017A000BC010196A11DB11D8093B9019093BA01AE
:1017B000A093BB01B093BC0120919400309195009F
:1017C000409196005091970082179307A407B507A0
:1017D00049F41092B9011092BA011092BB01109213
:1017E000BC010995FF91EF91BF91AF919F918F91AE
:1017F0007F916F915F914F913F912F910F900FBE0D
:101800000F901F9018951F920F920FB60F921124F0
:101810002F933F934F935F936F937F938F939F93F8
:10182000AF93BF93EF93FF93E091A401F091A501D3
:10183000309701F18091B5019091B601A091B70167
:10184000B091B8010196A11DB11D8093B50190938F
:10185000B601A093B701B093B8010197A105B105F6
:1018600049F41092B5011092B6011092B70110928E
:10187000B8010995FF91EF91BF91AF919F918F9121
:101880007F916F915F914F913F912F910F900FBE7C
:101890000F901F9018951F920F920FB60F92112460
:1018A0002F933F934F935F936F937F938F939F9368
:1018B000AF93BF93EF93FF93E091A601F091A7013F
:1018C000309701F18091B5019091B601A091B701D7
:1018D000B091B8010196A11DB11D8093B5019093FF
:1018E000B601A093B701B093B8010197A105B10566
:1018F00049F41092B5011092B6011092B7011092FE
:10190000B8010995FF91EF91BF91AF919F918F9190
:101910007F916F915F914F913F912F910F900FBEEB
:101920000F901F9018951F920F920FB60F921124CF
:101930002F933F934F935F936F937F938F939F93D7
:10194000AF93BF93CF93DF93EF93FF93C091A80121
:10195000D091A9012097E9F16091AC01662311F0C3
:101960008FEF83BD8091AD019091AE01A091AF0149
:10197000B091B0010196A11DB11D8093AD0190936E
:10198000AE01A093AF01B093B001209190003091CF
:101990009100409192005091930082179307A40701
:1019A000B507B9F4662359F06091B1017091B201A5
:1019B0008091B3019091B4010E947F0F63BD10929A
:1019C000AD011092AE011092AF011092B001FE0174
:1019D0000995FF91EF91DF91CF91BF91AF919F91C9
:1019E0008F917F916F915F914F913F912F910F90C8
:1019F0000FBE0F901F901895AF92BF92CF92DF92BB
:101A0000EF92FF920F931F93813041F0813048F0A5
:101A1000843009F4C8C023E030E06BC120E030E03E
:101A200068C1CB01BA0120E030E040E05CE30E94F5
:101A3000CA177B018C0120E030E040E85FE30E94A0
:101A4000C4188823C1F481E090E0A0E0B0E0809366
:101A5000940090939500A0939600B09397001092F5
:101A6000BD011092BE011092BF011092C00112BEC2
:101A700021E030E03EC1C801B70120E030E040E89D
:101A80005FE30E94F41818160CF058C0C801B701A3
:101A90000E947F0F5B016C010E94D8199B01AC0171
:101AA000C801B7010E946C177B018C0120E030E077
:101AB00040E050E00E94C4188823A1F4A092940052
:101AC000B0929500C0929600D09297001092BD01FE
:101AD0001092BE011092BF011092C00112BE21E00F
:101AE00030E007C1C801B70120E030E040E853E42E
:101AF0000E94CA179B01AC0160E070E080E893E4AB
:101B00000E946C170E947F0FA60195012F5F3F4F27
:101B10004F4F5F4F20939400309395004093960071
:101B2000509397006093BD017093BE018093BF01F5
:101B30009093C00162BF21E030E0DBC0C801B70173
:101B400020E030E040E85FE30E94541988230CF065
:101B5000CEC0C801B70120E030E040E853E40E9465
:101B6000CA179B01AC0160E070E080E893E40E943A
:101B70006C170E947F0F21E030E040E050E020939E
:101B80009400309395004093960050939700609393
:101B9000BD017093BE018093BF019093C00162BFED
:101BA00021E030E0A6C0CB01BA0120E030E040E8FF
:101BB0005DE30E94CA177B018C0120E030E040E821
:101BC0005FE30E94C418882399F481E090E0A0E0CC
:101BD000B0E08093900090939100A0939200B09316
:101BE00093008FEF83BD1092AC0121E030E081C003
:101BF000C801B70120E030E040E85FE30E94F4183C
:101C000018160CF04EC0C801B7010E947F0F5B018F
:101C10006C010E94D8199B01AC01C801B7010E9458
:101C20006C177B018C0120E030E040E050E00E9426
:101C3000C418882379F4A0929000B0929100C092C9
:101C40009200D09293008FEF83BD1092AC0121E0FF
:101C500030E04FC0C801B70120E030E040E853E475
:101C60000E94CA176093B1017093B2018093B301CF
:101C70009093B401A60195012F5F3F4F4F4F5F4FE7
:101C800020939000309391004093920050939300E2
:101C90000E947F0F63BD81E08093AC0121E030E0C2
:101CA00028C0C801B70120E030E040E85FE30E94AF
:101CB00054198823E4F481E090E0A0E0B0E0809340
:101CC000900090939100A0939200B0939300C8016C
:101CD000B70120E030E040E853E40E94CA170E94B8
:101CE0007F0F63BD1092AC0121E030E002C021E023
:101CF00030E0822F932F1F910F91FF90EF90DF9094
:101D0000CF90BF90AF900895A0E3B0E0EAE8FEE086
:101D10000C949B1CA8E04E010894811C911CF401BA
:101D2000BA2F1192BA95E9F729833A834B835C83E2
:101D30006D837E838F839887CE010996FC01119273
:101D4000AA95E9F7A986BA86CB86DC86ED86FE865B
:101D50000F87188B29813A814B815C812DA73EA783
:101D60004FA758AB79018A018FEF9FEFA0E0B0E059
:101D7000E822F9220A231B231A0144245524298529
:101D80003A854B855C8529A73AA74BA75CA75901E3
:101D90006A01A822B922CA22DB223A0188249924A6
:101DA000C601B501A80197010E945A1C6DA37EA32C
:101DB0008FA398A7C401B3010E945A1C69A37AA3F8
:101DC0008BA39CA3C601B501A20191010E945A1CDC
:101DD0007B018C01C401B3010E945A1C5B016C01A0
:101DE00089A19AA1ABA1BCA18E0D9F1DA01FB11FFF
:101DF00089A39AA3ABA3BCA32DA13EA14FA158A533
:101E0000CA01AA27BB2729A13AA14BA15CA1280F8F
:101E1000391F4A1F5B1F29A33AA34BA35CA32E15AE
:101E20003F054007510740F480E090E0A1E0B0E0BA
:101E3000A80EB91ECA1EDB1E89A19AA1ABA1BCA126
:101E40009D01442755272A0D3B1D4C1D5D1D2D8FDF
:101E50003E8F4F8F58A36C01BB24AA248DA19EA155
:101E6000AFA1B8A5A070B070A80EB91ECA1EDB1E27
:101E7000A98EBA8ECB8EDC8E9A8C8B8C7C8C9E8DB0
:101E80006F8D78A1FE01719688E0DF011D928A9521
:101E9000E9F72D8B9E8B6F8B788F2D853E854F8537
:101EA00058896DA57EA58FA598A90E945A1C7B0113
:101EB0008C012D813E814F81588569A57AA58BA51E
:101EC0009CA50E945A1CE60EF71E081F191F6D895B
:101ED0007E898F89988D6E0D7F1D801F911F6D8B60
:101EE0007E8B8F8B988FEE892A2D392D482D572D7B
:101EF0007E2F8F89988DE096E2E10C94B71CEF92CB
:101F0000FF920F931F937B018C0120E030E040E0B3
:101F10005FE40E94241988238CF0C801B70120E0F7
:101F200030E040E05FE40E946C170E9484199B013E
:101F3000AC01205030404040504806C0C801B701B5
:101F40000E9484199B01AC01B901CA011F910F9134
:101F5000FF90EF900895AEE5B0E0E1EBFFE00C9468
:101F60009B1CA8E04E010894811C911CF4016A2E70
:101F700011926A94E9F729833A834B835C836D83DA
:101F80007E838F839887CE010996FC011192AA95D2
:101F9000E9F7A986BA86CB86DC86ED86FE860F87B2
:101FA000188B29843A844B845C84ED84FE840F85ED
:101FB000188969807A808B809C806DA67EA68FA60A
:101FC00098AA6D807E808F809884E114F1040105C9
:101FD000110509F0B3C3621473048404950408F076
:101FE0003DC100E0201600E0300601E0400600E0C0
:101FF000500688F41FEF211631044104510439F0D2
:1020000030F048E0E42EF12C012D112D18C0EE2403
:10201000FF24870114C020E0221620E0320620E0D1
:10202000420621E0520630F038E1E32EF12C012D7A
:10203000112D05C020E1E22EF12C012D112DD20130
:10204000C1010E2C04C0B695A795979587950A9463
:10205000D2F780569F4FDC012C9180E290E0A0E007
:10206000B0E08E199F09A00BB10B7C018D01E21A23
:10207000F10801091109E114F10401051105A1F1AB
:102080000E2C04C0220C331C441C551C0A94D2F79D
:10209000A40193010E2C04C0220F331F441F551FAF
:1020A0000A94D2F780E290E08E199F096DA47EA475
:1020B0008FA498A804C096948794779467948A957F
:1020C000D2F7622A732A842A952AADA4BEA4CFA48B
:1020D000D8A804C0AA0CBB1CCC1CDD1CEA94D2F707
:1020E000ADA6BEA6CFA6D8AA6201EE24FF24CDAA33
:1020F000DEAAEFAAF8AE920181012070307009AF1C
:102100001AAF2BAF3CAFC401B301A70196010E94E7
:10211000791C7B018C01C401B3012DA93EA94FA9F3
:1021200058AD0E94791CC901DA013C014D01C4017E
:10213000B30129AD3AAD4BAD5CAD0E945A1C9B0179
:10214000AC018701FF24EE24ADA4BEA4CFA4D8A87F
:10215000C601AA27BB2757016801A82AB92ACA2A9B
:10216000DB2AA216B306C406D506E0F4089461087B
:10217000710881089108A20CB31CC41CD51CA214C0
:10218000B304C404D50470F0A216B306C406D50681
:1021900048F408946108710881089108A20CB31CE6
:1021A000C41CD51CA21AB30AC40AD50AC601B501BB
:1021B0002DA93EA94FA958AD0E94791C7B018C0125
:1021C000C601B5012DA93EA94FA958AD0E94791CA1
:1021D000C901DA015C016D01C601B50129AD3AAD55
:1021E0004BAD5CAD0E945A1C9B01AC018701FF24E2
:1021F000EE248DA59EA5AFA5B8A9A070B070E82A61
:10220000F92A0A2B1B2BE216F30604071507C0F464
:102210000894A108B108C108D108E20CF31C041D00
:10222000151DE214F3040405150550F0E216F3063B
:102230000407150728F40894A108B108C108D108BB
:10224000D3019927882786017501E82AF92A0A2BE4
:102250001B2BE9AAFAAA0BAB1CABCFC42114310487
:102260004104510471F461E070E080E090E020E00E
:1022700030E040E050E00E94791CC901DA011C0105
:102280002D0100E0201600E0300601E0400600E0ED
:10229000500688F41FEF211631044104510431F037
:1022A00028F048E050E060E070E017C040E050E007
:1022B00060E070E012C020E0221620E0320620E04C
:1022C000420621E0520628F048E150E060E070E06C
:1022D00004C040E150E060E070E0D201C101042E92
:1022E00004C0B695A795979587950A94D2F780561E
:1022F0009F4FDC012C91E0E2EE2EF12C012D112DEF
:10230000D801C701841B950BA60BB70B821B910943
:10231000A109B1090097A105B10561F46401530158
:10232000A218B308C408D50831E0632E712C812CA3
:10233000912C1EC16F968FAF6F97082E04C0220C90
:10234000331C441C551C0A94D2F7EE2DE81B640183
:1023500053010E2E04C0D694C794B794A7940A9440
:10236000D2F7A40193016F960FAC6F9704C0220FB0
:10237000331F441F551F0A94D2F76DA47EA48FA467
:1023800098A80E2E04C096948794779467940A9424
:10239000D2F784017301E22AF32A042B152BE9A654
:1023A000FAA60BA71CA73201882499249201810167
:1023B0002070307021960CAF1DAF2EAF3FAF21972C
:1023C000C601B501A40193010E94791C7B018C0117
:1023D000C601B501A40193010E94791CC901DA016B
:1023E00025968CAF9DAFAEAFBFAF2597BC01CD0199
:1023F00021962CAD3DAD4EAD5FAD21970E945A1C8C
:102400009B01AC018701FF24EE24A9A4BAA4CBA4AC
:10241000DCA4C601AA27BB275C016D01AE28BF283A
:10242000C02AD12AA216B306C406D50660F52596A1
:102430006CAD7DAD8EAD9FAD2597615070408040F5
:10244000904025966CAF7DAF8EAF9FAF2597A20CC5
:10245000B31CC41CD51CA214B304C404D50498F046
:10246000A216B306C406D50670F4615070408040D1
:10247000904025966CAF7DAF8EAF9FAF2597A20C95
:10248000B31CC41CD51CA21AB30AC40AD50AC601BF
:10249000B501A40193010E94791C7B018C01C60146
:1024A000B501A40193010E94791CC901DA013C0124
:1024B0004D01C401B30121962CAD3DAD4EAD5FADD4
:1024C00021970E945A1C9B01AC018701FF24EE2436
:1024D00089A59AA5ABA5BCA5A070B07057016801ED
:1024E000A82AB92ACA2ADB2AA216B306C406D50628
:1024F000E0F408946108710881089108A20CB31CEB
:10250000C41CD51CA214B304C404D50470F0A216D4
:10251000B306C406D50648F408946108710881081A
:102520009108A20CB31CC41CD51C8DA59EA5AFA5FB
:10253000B8A96F960FAC6F9704C0880F991FAA1F98
:10254000BB1F0A94D2F78DA79EA7AFA7B8ABA21A5C
:10255000B30AC40AD50A2596ECACFDAC0EAD1FAD8E
:102560002597D70199278827682A792A8A2A9B2ABA
:1025700082012227332729960CAF1DAF2EAF3FAF24
:102580002997A2019101407050702D962CAF3DAF5C
:102590004EAF5FAF2D97C601B50129962CAD3DAD6D
:1025A0004EAD5FAD29970E94791C7B018C01C6015D
:1025B000B50129962CAD3DAD4EAD5FAD29970E947A
:1025C000791CC901DA0161968CAF9DAFAEAFBFAF88
:1025D0006197BC01CD012D962CAD3DAD4EAD5FADEB
:1025E0002D970E945A1C9B01AC018701FF24EE2409
:1025F000ADA4BEA4CFA4D8A8C601AA27BB27570163
:102600006801A82AB92ACA2ADB2AA216B306C40678
:10261000D50660F561966CAD7DAD8EAD9FAD6197D1
:10262000615070408040904061966CAF7DAF8EAF3E
:102630009FAF6197A20CB31CC41CD51CA214B30499
:10264000C404D50498F0A216B306C406D50670F4E7
:10265000615070408040904061966CAF7DAF8EAF0E
:102660009FAF6197A20CB31CC41CD51CA21AB30A5D
:10267000C40AD50AC601B50129962CAD3DAD4EADB3
:102680005FAD29970E94791C7B018C01C601B501C1
:1026900029962CAD3DAD4EAD5FAD29970E94791CBA
:1026A000C901DA015C016D01C601B5012D962CADA1
:1026B0003DAD4EAD5FAD2D970E945A1C9B01AC0104
:1026C0008701FF24EE248DA59EA5AFA5B8A9A07013
:1026D000B070E82AF92A0A2B1B2BE216F30604072E
:1026E0001507C0F40894A108B108C108D108E20C8C
:1026F000F31C041D151DE214F3040405150550F028
:10270000E216F3060407150728F40894A108B10897
:10271000C108D1086196ECACFDAC0EAD1FAD619760
:10272000D7019927882796018501082B192B2A2B79
:102730003B2B09AB1AAB2BAB3CAB62C26E147F04D4
:102740008006910608F451C220E0E21620E0F2066D
:1027500021E0020720E0120788F43FEFE316F104BE
:102760000105110531F028F048E050E060E070E02C
:1027700017C040E050E060E070E012C040E0E416B6
:1027800040E0F40640E0040741E0140728F048E187
:1027900050E060E070E004C040E150E060E070E0D4
:1027A000D801C701042E04C0B695A79597958795C3
:1027B0000A94D2F780569F4FDC012C9130E2A32E71
:1027C000B12CC12CD12CD601C501841B950BA60BB5
:1027D000B70B821B9109A109B1090097A105B105A9
:1027E00089F4E614F7040805190508F4F2C16DA48C
:1027F0007EA48FA498A8621473048404950408F03E
:10280000E8C1F3C16E968FAF6E97082E04C0EE0C30
:10281000FF1C001F111F0A94D2F76A2D681BD201FA
:10282000C101062E04C0B695A795979587950A9481
:10283000D2F75C016D01AE28BF28C02AD12AADA213
:10284000BEA2CFA2D8A6720161016E960FAC6E97A0
:1028500004C0CC0CDD1CEE1CFF1C0A94D2F7C9A2EC
:10286000DAA2EBA2FCA264015301062E04C0D694A6
:10287000C794B794A7940A94D2F7D401C3016E9673
:102880000FAC6E9704C0880F991FAA1FBB1F0A9434
:10289000D2F7EDA4FEA40FA518A904C016950795BC
:1028A000F794E7946A95D2F737014801682A792AA4
:1028B0008A2A9B2A6D8E7E8E8F8E98A2EDA0FEA016
:1028C0000FA118A538018824992498018701207048
:1028D000307065960CAF1DAF2EAF3FAF6597C60148
:1028E000B501A40193010E94791C7B018C01C601F2
:1028F000B501A40193010E94791CC901DA011C01F0
:102900002D01C201B10165962CAD3DAD4EAD5FAD5F
:1029100065970E945A1C9B01AC018701FF24EE249D
:10292000AD8CBE8CCF8CD8A0C601AA27BB2757017F
:102930006801A82AB92ACA2ADB2AA216B306C40645
:10294000D50600F508942108310841085108EDA08A
:10295000FEA00FA118A5AE0CBF1CC01ED11EAE1448
:10296000BF04C006D10670F0A216B306C406D50691
:1029700048F408942108310841085108AE0CBF1CE6
:10298000C01ED11EA21AB30AC40AD50AC601B501D7
:10299000A40193010E94791C7B018C01C601B50141
:1029A000A40193010E94791CC901DA013C014D0187
:1029B000C401B30165962CAD3DAD4EAD5FAD6597DD
:1029C0000E945A1C9B01AC018701FF24EE248D8DCF
:1029D0009E8DAF8DB8A1A070B07057016801A82A74
:1029E000B92ACA2ADB2AA216B306C406D50600F500
:1029F000089461087108810891086DA17EA18FA1DA
:102A000098A5A60EB71EC81ED91EA616B706C806DC
:102A1000D90670F0A216B306C406D50648F4089489
:102A20006108710881089108A60EB71EC81ED91E3C
:102A3000D601C501821B930BA40BB50B898F9A8F0E
:102A4000AB8FBC8FD1019927882764015301A82A35
:102A5000B92ACA2ADB2AA9AABAAACBAADCAA860161
:102A600075012FEF3FEF40E050E0E222F322042314
:102A70001523A601662777276D964CAF5DAF6EAF25
:102A80007FAF6D97A9A0BAA0CBA0DCA06FEF7FEFBE
:102A900080E090E0A622B722C822D92289A19AA17B
:102AA000ABA1BCA11D0144245524C801B701A60156
:102AB00095010E945A1C69966CAF7DAF8EAF9FAF97
:102AC0006997C801B701A20191010E945A1C3B01FC
:102AD0004C016D966CAD7DAD8EAD9FAD6D97A60131
:102AE00095010E945A1C7B018C016D966CAD7DADE9
:102AF0008EAD9FAD6D97A20191010E945A1C5B01A2
:102B00006C01A8019701260D371D481D591D6996B6
:102B10006CAC7DAC8EAC9FAC6997C401AA27BB2777
:102B2000280F391F4A1F5B1F2E153F05400751070D
:102B300048F4E12CF12C61E0062F112DAE0CBF1CE6
:102B4000C01ED11ECA01AA27BB27BC01CD016A0D38
:102B50007B1D8C1D9D1D698C7A8C8B8C9C8C6616C4
:102B600077068806990640F1661577058805990568
:102B700009F043C0D9019927882769962CAD3DAD4E
:102B80004EAD5FAD699740705070820F931FA41FC8
:102B9000B51F2DA53EA54FA558A96E960FAC6E97F3
:102BA00004C0220F331F441F551F0A94D2F7281761
:102BB00039074A075B0708F509A91AA92BA93CA9F7
:102BC000015010402040304009AB1AAB2BAB3CAB5E
:102BD00014C066247724430121E030E040E050E057
:102BE00029AB3AAB4BAB5CAB0BC0662477244301FB
:102BF00019AA1AAA1BAA1CAA03C066247724430197
:102C0000FE01719688E0DF011D928A95E9F7A9A877
:102C1000BAA8CBA8DCA8A98ABA8ACB8ADC8A6D8A32
:102C20007E8A8F8A988E29A93A894B895C89662D7C
:102C30007E898F89988DC25ADF4FE2E10C94B71CD0
:102C4000A0E0B0E0E6E2F6E10C949B1CDC012B0175
:102C5000FA019C91923008F439C1EB0188818230ED
:102C600008F433C1943069F4843009F02FC111960F
:102C70009C9111978981981709F428C1A8E9B0E0BF
:102C800025C1843009F421C18230A9F4923009F0C1
:102C90001DC19A01AD0188E0EA010990AE01E90188
:102CA00009929E018150C1F7E201898111969C91A0
:102CB0008923818308C1923009F407C112962D90AF
:102CC0003C901397EB018A819B811496AD90BD9047
:102CD000CD90DC901797EC80FD800E811F819101D3
:102CE000281B390BB90137FF04C066277727621B01
:102CF000730B603271050CF061C0121613066CF58F
:102D000037014801062E04C09694879477946794FF
:102D10000A94D2F721E030E040E050E004C0220FF6
:102D2000331F441F551F6A95D2F721503040404051
:102D300050402E213F2140235123211531054105CB
:102D4000510521F021E030E040E050E079018A01B6
:102D5000E628F728082919293CC0232BD1F1260E93
:102D6000371E35014601062E04C096948794779449
:102D700067940A94D2F721E030E040E050E004C0CC
:102D8000220F331F441F551F6A95D2F72150304040
:102D9000404050402A213B214C215D212115310525
:102DA0004105510521F021E030E040E050E05901BB
:102DB0006A01A628B728C828D9280BC08215930510
:102DC0002CF01C01AA24BB24650103C0EE24FF24BF
:102DD000870111969C91D20111968C91981709F454
:102DE00045C0992339F0A80197012A193B094C09DC
:102DF0005D0906C0A60195012E193F09400B510B34
:102E000057FD08C011823382228224833583468392
:102E100057831DC081E081833382228288279927CE
:102E2000DC01821B930BA40BB50B84839583A683D3
:102E3000B7830DC0220F331F441F551F24833583D2
:102E40004683578382819381019793838283248170
:102E5000358146815781DA01C9010197A109B1097C
:102E60008F5F9F4FAF4FBF4328F30BC091833382D7
:102E70002282EA0CFB1C0C1D1D1DE482F5820683D8
:102E8000178383E08083248135814681578157FFF2
:102E90001AC0C901AA2797FDA095BA2F817090701A
:102EA000A070B0705695479537952795822B932B38
:102EB000A42BB52B84839583A683B78382819381CA
:102EC000019693838283DF0101C0D201CD01CDB78A
:102ED000DEB7E2E10C94B71CA0E2B0E0E2E7F7E174
:102EE0000C94A71C69837A838B839C832D833E83F8
:102EF0004F835887E9E0EE2EF12CEC0EFD1ECE013B
:102F00000196B7010E94751B8E010F5E1F4FCE0107
:102F10000596B8010E94751B8A8991E089278A8BE2
:102F2000C701B801AE01475E5F4F0E9420160E94A4
:102F3000A01AA096E6E00C94C31CA0E2B0E0E3EA7D
:102F4000F7E10C94A71C69837A838B839C832D8380
:102F50003E834F835887F9E0EF2EF12CEC0EFD1ED7
:102F6000CE010196B7010E94751B8E010F5E1F4FA7
:102F7000CE010596B8010E94751BC701B801AE01CC
:102F8000475E5F4F0E9420160E94A01AA096E6E0BE
:102F90000C94C31CA0E2B0E0E0EDF7E10C949B1CA4
:102FA00069837A838B839C832D833E834F835887E9
:102FB000CE010196BE01675F7F4F0E94751BCE0157
:102FC0000596BE016F5E7F4F0E94751B99859230FA
:102FD00088F089898230C8F0943019F4823051F435
:102FE00004C0843029F4923081F488E990E0C6C0AE
:102FF000923049F420E09A858A89981321E02A8743
:10300000CE010996BBC0823049F420E09A858A89B6
:10301000981321E02A8BCE014196B0C02D843E84C6
:103020004F8458886D887E888F88988CEE24FF2482
:103030008701AA24BB24650140E050E060E070E015
:10304000E0E0F0E0C10181709070892BE9F0E60CBE
:10305000F71C081D191D9A01AB012A0D3B1D4C1DC3
:103060005D1D80E090E0A0E0B0E0E614F704080504
:10307000190520F481E090E0A0E0B0E0BA01A901D8
:10308000480F591F6A1F7B1FAA0CBB1CCC1CDD1CE0
:1030900097FE08C081E090E0A0E0B0E0A82AB92A3D
:1030A000CA2ADB2A3196E032F10549F0660C771C1A
:1030B000881C991C5694479437942794C3CFFA855B
:1030C000EA892B893C898B859C85280F391F2E5FC7
:1030D0003F4F17C0CA0181709070892B61F016951F
:1030E0000795F794E79480E090E0A0E0B0E8E82A44
:1030F000F92A0A2B1B2B76956795579547952F5FD5
:103100003F4F77FDE7CF0CC0440F551F661F771F59
:1031100017FD4160EE0CFF1C001F111F21503040B5
:10312000403090E0590790E0690790E4790760F338
:103130002B8F3C8FDB01CA018F779070A070B0702D
:1031400080349105A105B10561F447FD0AC0E11481
:10315000F1040105110529F0405C5F4F6F4F7F4F6F
:1031600040781A8EFE1711F081E08A8F4D8F5E8FA6
:103170006F8F78A383E0898FCE0149960E94A01AB1
:10318000A096E2E10C94B71CA8E1B0E0EAECF8E10B
:103190000C94A71C69837A838B839C832D833E8345
:1031A0004F83588789E0E82EF12CEC0EFD1ECE01EE
:1031B0000196B7010E94751B8E010F5E1F4FCE0155
:1031C0000596B8010E94751B8985823040F0898977
:1031D000823028F0C701B8010E94ED1B01C081E0D8
:1031E0006896E6E00C94C31CA8E1B0E0EAEFF8E1D1
:1031F0000C94A71C69837A838B839C832D833E83E5
:103200004F83588789E0E82EF12CEC0EFD1ECE018D
:103210000196B7010E94751B8E010F5E1F4FCE01F4
:103220000596B8010E94751B8985823040F0898916
:10323000823028F0C701B8010E94ED1B01C08FEF5A
:103240006896E6E00C94C31CA8E1B0E0EAE2F9E17C
:103250000C94A71C69837A838B839C832D833E8384
:103260004F83588789E0E82EF12CEC0EFD1ECE012D
:103270000196B7010E94751B8E010F5E1F4FCE0194
:103280000596B8010E94751B8985823040F08989B6
:10329000823028F0C701B8010E94ED1B01C08FEFFA
:1032A0006896E6E00C94C31CA8E1B0E0EAE5F9E119
:1032B0000C94A71C69837A838B839C832D833E8324
:1032C0004F83588789E0E82EF12CEC0EFD1ECE01CD
:1032D0000196B7010E94751B8E010F5E1F4FCE0134
:1032E0000596B8010E94751B8985823040F0898956
:1032F000823028F0C701B8010E94ED1B01C081E0B7
:103300006896E6E00C94C31CACE0B0E0EAE8F9E1B2
:103310000C94AB1C69837A838B839C83CE010196CA
:10332000BE016B5F7F4F0E94751B8D81823061F102
:10333000823050F1843021F48E81882351F12EC0E7
:103340002F81388537FD20C06E812F3131051CF06B
:103350006623F9F023C08EE190E0821B930B298550
:103360003A854B855C8504C05695479537952795DA
:103370008A95D2F76623B1F0509540953095219506
:103380003F4F4F4F5F4F0EC020E030E040E050E035
:1033900009C02FEF3FEF4FEF5FE704C020E030E0C0
:1033A00040E050E8B901CA012C96E2E00C94C71C39
:1033B000A8E0B0E0EEEDF9E10C94A31C7B018C01D8
:1033C000611571058105910519F482E0898360C05A
:1033D00083E089838EE1C82ED12CDC82CB82ED8202
:1033E000FE820F831887C801B7010E94511AFC01A1
:1033F0003197F7FF3BC0222733272E1B3F0B570186
:103400006801022E04C0D694C794B794A7940A9476
:10341000D2F740E050E060E070E081E090E0A0E0B2
:10342000B0E004C0880F991FAA1FBB1F2A95D2F7CE
:103430000197A109B1098E219F21A023B1230097F3
:10344000A105B10521F041E050E060E070E04A29BB
:103450005B296C297D294D835E836F8378878EE19C
:1034600090E08E1B9F0B9C838B8312C0309781F062
:103470000E2E04C0EE0CFF1C001F111F0A94D2F781
:10348000ED82FE820F831887CE1ADF0ADC82CB82A0
:103490001A82CE0101960E94A01A2896EAE00C94A6
:1034A000BF1CEF92FF920F931F937B018C0180E072
:1034B000E81680E0F80681E0080780E0180788F445
:1034C0008FEFE816F1040105110531F028F088E0CE
:1034D00090E0A0E0B0E017C080E090E0A0E0B0E0B5
:1034E00012C080E0E81680E0F80680E0080781E07E
:1034F000180728F088E190E0A0E0B0E004C080E187
:1035000090E0A0E0B0E020E230E040E050E0281B96
:10351000390B4A0B5B0B04C016950795F794E7949B
:103520008A95D2F7F701E056FF4F8081281B3109B9
:1035300041095109C9011F910F91FF90EF90089522
:10354000DF92EF92FF920F931F93FC01E480F580CE
:1035500006811781D1808081823048F480E090E03C
:10356000A0E1B0E0E82AF92A0A2B1B2BA5C0843081
:1035700009F49FC0823021F4EE24FF24870105C0A6
:10358000E114F1040105110519F4E0E0F0E096C042
:10359000628173819FEF623879070CF05BC022E88B
:1035A0003FEF261B370B2A3131052CF020E030E0AD
:1035B00040E050E02AC0B801A701022E04C0769571
:1035C0006795579547950A94D2F781E090E0A0E07F
:1035D000B0E004C0880F991FAA1FBB1F2A95D2F71D
:1035E0000197A109B1098E219F21A023B123009742
:1035F000A105B10521F081E090E0A0E0B0E09A01E2
:10360000AB01282B392B4A2B5B2BDA01C9018F77B1
:103610009070A070B07080349105A105B10539F4A7
:1036200027FF09C0205C3F4F4F4F5F4F04C0215C14
:103630003F4F4F4F5F4FE0E0F0E02030A0E03A070F
:10364000A0E04A07A0E45A0710F0E1E0F0E07901B9
:103650008A0127C06038710564F5FB01E158FF4F0E
:10366000D801C7018F779070A070B0708034910539
:10367000A105B10539F4E7FE0DC080E490E0A0E0BB
:10368000B0E004C08FE390E0A0E0B0E0E80EF91EE7
:103690000A1F1B1F17FF05C016950795F794E7949F
:1036A000319687E016950795F794E7948A95D1F7B8
:1036B00005C0EE24FF248701EFEFF0E06E2F679541
:1036C00066276795902F9F77D794DD24D7948E2F08
:1036D0008695492F462B582F5D29B701CA011F91A6
:1036E0000F91FF90EF90DF900895FC01DB01408186
:1036F00051812281622F6F7770E0221F2227221FC3
:103700009381892F880F822B282F30E0991F9927CA
:10371000991F11969C93119721153105A9F5411513
:1037200051056105710511F482E037C082E89FEF11
:1037300013969C938E9312979A01AB0167E0220F28
:10374000331F441F551F6A95D1F783E08C930DC03A
:10375000220F331F441F551F12968D919C91139772
:10376000019713969C938E931297203080E0380730
:1037700080E0480780E4580758F314962D933D9352
:103780004D935C93179708952F3F310579F44115B8
:1037900051056105710519F484E08C93089564FF67
:1037A00003C081E08C9312C01C9210C02F57304090
:1037B00013963C932E93129783E08C9387E0440FEB
:1037C000551F661F771F8A95D1F7706414964D9325
:1037D0005D936D937C93179708951F93DC01FB0114
:1037E0009C91923008F447C08081823008F443C035
:1037F000943051F411961C91843099F58181682F91
:1038000070E0611B71093FC0843021F0923031F4C7
:103810008230B9F18181882389F12DC011961C91E4
:1038200011978230F1F081811817D9F412962D91F9
:103830003C911397828193818217930794F0281704
:103840003907BCF014968D919D910D90BC91A02DDF
:103850002481358146815781281739074A075B073C
:1038600018F4112341F00AC082179307A407B50783
:1038700040F4112319F061E070E005C06FEF7FEFB5
:1038800002C060E070E0CB011F910895AA1BBB1B32
:1038900051E107C0AA1FBB1FA617B70710F0A61B50
:1038A000B70B881F991F5A95A9F780959095BC0171
:1038B000CD010895629FD001739FF001829FE00DBA
:1038C000F11D649FE00DF11D929FF00D839FF00D9F
:1038D000749FF00D659FF00D9927729FB00DE11D4B
:1038E000F91F639FB00DE11DF91FBD01CF01112428
:1038F0000895A1E21A2EAA1BBB1BFD010DC0AA1F31
:10390000BB1FEE1FFF1FA217B307E407F50720F048
:10391000A21BB30BE40BF50B661F771F881F991FC3
:103920001A9469F760957095809590959B01AC010C
:10393000BD01CF0108952F923F924F925F926F92F7
:103940007F928F929F92AF92BF92CF92DF92EF922F
:10395000FF920F931F93CF93DF93CDB7DEB7CA1BB0
:10396000DB0B0FB6F894DEBF0FBECDBF09942A88DB
:10397000398848885F846E847D848C849B84AA8483
:10398000B984C884DF80EE80FD800C811B81AA8110
:10399000B981CE0FD11D0FB6F894DEBF0FBECDBFDB
:0839A000ED010895F894FFCF3A
:1039A80000010002000300040005000600070206EB
:1039B80021210700010002000300040005000600A1
:1039C8000702072121073F065B4F666D7D077F6F62
:1039D80001000000010000000000000000000000DD
:1039E800000102020303030304040404040404049E
:1039F800050505050505050505050505050505056F
:103A0800060606060606060606060606060606064E
:103A1800060606060606060606060606060606063E
:103A2800070707070707070707070707070707071E
:103A3800070707070707070707070707070707070E
:103A480007070707070707070707070707070707FE
:103A580007070707070707070707070707070707EE
:103A680008080808080808080808080808080808CE
:103A780008080808080808080808080808080808BE
:103A880008080808080808080808080808080808AE
:103A9800080808080808080808080808080808089E
:103AA800080808080808080808080808080808088E
:103AB800080808080808080808080808080808087E
:103AC800080808080808080808080808080808086E
:103AD800080808080808080808080808080808085E
:00000001FF
