:100000000C942A000C943F000C943F000C943F0089
:100010000C943F000C943F000C943F000C943F0064
:100020000C943F000C943F000C943F000C943F0054
:100030000C943F000C943F000C943F000C943F0044
:100040000C943F000C943F000C943F000C943F0034
:100050000C943F0011241FBECFE5D8E0DEBFCDBF1A
:1000600010E0A0E6B0E0E0E3FBE002C005900D92F6
:10007000A039B107D9F70E946D050C9496050C9430
:1000800000001ABA83E087BB8FEF84BB83E981BB92
:1000900080EE8BBB8EED88BB89E585BB8EE582BB90
:1000A00081E090E00895843018F023E030E01AC039
:1000B000813069F0813038F0823069F0833079F036
:1000C00021E030E00FC06ABB21E030E00BC067BB2D
:1000D00021E030E007C064BB21E030E003C061BB39
:1000E00021E030E0822F932F0895843018F023E030
:1000F00030E01AC0813069F0813038F0823069F028
:10010000833079F021E030E00FC06BBB21E030E0BC
:100110000BC068BB21E030E007C065BB21E030E0E8
:1001200003C062BB21E030E0822F932F0895FB01D2
:100130006115710519F422E030E023C0843018F015
:1001400023E030E01EC0813071F0813038F0823021
:1001500079F0833091F021E030E013C089B38083DF
:1001600021E030E00EC086B3808321E030E009C09A
:1001700083B3808321E030E004C080B3808321E03A
:1001800030E0822F932F0895843008F07EC06830CD
:1001900008F07BC0423008F078C0813029F181300E
:1001A00040F08230E1F1833009F454C021E030E0C6
:1001B0006EC0EAE3F0E0208181E090E0062E02C00C
:1001C000880F991F0A94E2F780958223808320810B
:1001D000842F90E002C0880F991F6A95E2F7282BC0
:1001E000208321E030E053C0E7E3F0E0208181E0AC
:1001F00090E0062E02C0880F991F0A94E2F78095BE
:10020000822380832081842F90E002C0880F991F71
:100210006A95E2F7282B208321E030E038C0E4E340
:10022000F0E0208181E090E0062E02C0880F991F47
:100230000A94E2F78095822380832081842F90E0C6
:1002400002C0880F991F6A95E2F7282B208321E0CE
:1002500030E01DC0E1E3F0E0208181E090E0062E77
:1002600002C0880F991F0A94E2F780958223808349
:100270002081842F90E002C0880F991F6A95E2F7D1
:10028000282B208321E030E002C023E030E0822FE1
:10029000932F0895843008F07EC0683008F07BC04A
:1002A000423008F078C0813029F1813040F082304E
:1002B000E1F1833009F454C021E030E06EC0EBE39B
:1002C000F0E0208181E090E0062E02C0880F991FA7
:1002D0000A94E2F78095822380832081842F90E026
:1002E00002C0880F991F6A95E2F7282B208321E02E
:1002F00030E053C0E8E3F0E0208181E090E0062E9A
:1003000002C0880F991F0A94E2F7809582238083A8
:100310002081842F90E002C0880F991F6A95E2F730
:10032000282B208321E030E038C0E5E3F0E0208195
:1003300081E090E0062E02C0880F991F0A94E2F730
:100340008095822380832081842F90E002C0880FD3
:10035000991F6A95E2F7282B208321E030E01DC029
:10036000E2E3F0E0208181E090E0062E02C0880FF9
:10037000991F0A94E2F78095822380832081842F3D
:1003800090E002C0880F991F6A95E2F7282B20831E
:1003900021E030E002C023E030E0822F932F089567
:1003A000FA014115510519F422E030E043C08430D0
:1003B00008F03EC0683008F03BC08130A9F08130C1
:1003C00038F08230E9F0833039F121E030E032C09A
:1003D00089B390E002C0959587956A95E2F78170A0
:1003E000808321E030E026C086B390E002C095957E
:1003F00087956A95E2F78170808321E030E01AC02A
:1004000083B390E002C0959587956A95E2F7817075
:10041000808321E030E00EC080B390E002C095956B
:1004200087956A95E2F78170808321E030E002C011
:1004300023E030E0822F932F0895823018F023E0DC
:1004400030E04BC0282F30E0F901EE0FFF1FCF0145
:10045000880F991F880F991F880F991FE80FF91FA0
:10046000E20FF31FE259FF4F40814132A1F1F90140
:10047000EE0FFF1FCF01880F991F880F991F880F5C
:10048000991FE80FF91FE20FF31FE159FF4F608139
:10049000613209F1F901EE0FFF1FCF01880F991F9B
:1004A000880F991F880F991FE80FF91FE20FF31F9C
:1004B000EE58FF4F8081873031F4842F41E00E9455
:1004C0004A019C010AC0863031F4842F40E00E942A
:1004D0004A019C0102C024E030E0822F932F08954E
:1004E000823018F023E030E04BC0282F30E0F901D3
:1004F000EE0FFF1FCF01880F991F880F991F880FDC
:10050000991FE80FF91FE20FF31FE259FF4F4081D7
:100510004132A1F1F901EE0FFF1FCF01880F991FA2
:10052000880F991F880F991FE80FF91FE20FF31F1B
:10053000E159FF4F6081613209F1F901EE0FFF1FB0
:10054000CF01880F991F880F991F880F991FE80FF7
:10055000F91FE20FF31FEE58FF4F8081873031F40F
:10056000842F40E00E944A019C010AC0863031F489
:10057000842F41E00E944A019C0102C024E030E047
:10058000822F932F08955F926F927F928F929F9206
:10059000AF92BF92CF92DF92EF92FF920F931F9391
:1005A0006A3008F044C1823008F041C1282F30E0A1
:1005B000F901EE0FFF1FCF01880F991F880F991FB8
:1005C000880F991FE80FF91FE20FF31FEE58FF4F36
:1005D000E081E73009F084C0E6E8F0E0E60FF11DC5
:1005E000B0808901000F111FC801880F991F880F63
:1005F000991F880F991F080F191F020F131F005A08
:100600001F4F4B2D4170F801808161810E944A018A
:100610004C014B2D46954170F801828163810E9407
:100620004A017C014B2D469546954170F801848125
:1006300065810E944A016C014B2D46954695469571
:100640004170F801868167810E944A01782E4B2D06
:1006500042954F704170F801808561850E944A0182
:10066000A82E4B2D4295469547704170F801828522
:1006700063850E944A01EE0CFF1CEE0CFF1CEE0C81
:10068000FF1C0024D694C7940794D694C79407946B
:10069000DC2CC02CEC28FD28E828F928372D330F56
:1006A00020E0E22AF32A3A2D3295307F20E0E22A38
:1006B000F32A382F37953327379520E04701822AD0
:1006C000932AB694B694B694B694B694B694F1E0E0
:1006D000BF22F801848565854B2D0E944A018FC099
:1006E000E63019F024E030E0A4C0E6E8F0E0E60FE0
:1006F000F11D50808901000F111FC801880F991F3B
:10070000880F991F880F991F080F191F020F131FB9
:10071000005A1F4FCC24DD24C394452D4C25417035
:10072000F801808161810E944A013C01452D469576
:100730004C254170F801828163810E944A017C014D
:10074000452D469546954C254170F801848165817B
:100750000E944A015C01452D4695469546954C25DB
:100760004170F801868167810E944A01882E452DDB
:1007700042954F704C254170F801808561850E943B
:100780004A01982E452D4295469547704C2541705B
:10079000F801828563850E944A01EE0CFF1CEE0C75
:1007A000FF1CEE0CFF1C0024B694A7940794B6948B
:1007B000A7940794BA2CA02CEA28FB28E628F7284F
:1007C000382D330F20E0E22AF32A392D3295307F7D
:1007D00020E0E22AF32A382F37953327379520E097
:1007E0004701822A932A452D4295469546954370A6
:1007F0004C254170F801848565850E944A0120E0FE
:1008000030E0C401022E02C0969587950A94E2F763
:1008100087709070019719F020E030E00AC02D5FDA
:100820003F4F2531310569F721E030E002C023E078
:1008300030E0822F932F1F910F91FF90EF90DF9068
:10084000CF90BF90AF909F908F907F906F905F9070
:1008500008952F923F925F926F927F928F929F9214
:10086000AF92BF92CF92DF92EF92FF920F931F93BE
:10087000DF93CF93CDB7DEB728970FB6F894DEBFDE
:100880000FBECDBF009719F422E030E00CC198876D
:100890008F83CC24DD245524EE24FF248701EF81AF
:1008A000F8858081618141E00E94C4009E838D8330
:1008B000EF81F8858281638141E00E94C4009C83BE
:1008C0008B83EF81F8858481658141E00E94C400BB
:1008D0009A838983EF81F8858681678141E00E9450
:1008E000C4001C01EF81F8858085618541E00E948C
:1008F000C4003C01EF81F8858285638541E00E9458
:10090000C4004C01EF81F8858485658541E00E9433
:10091000C4005C01EF81F8858685813239F06785F6
:10092000613221F041E00E94C4006C01F1E0CF1679
:10093000D10409F0B7C0EF81F8858089813259F080
:100940006189613241F041E00E94C4009C01813024
:10095000910509F0A8C06D817E819B0140E050E0C7
:100960002E293F29402B512BEB81FC81CF01A0E0A8
:10097000B0E0880F991FAA1FBB1F880F991FAA1FDD
:10098000BB1F880F991FAA1FBB1F282B392B4A2B6F
:100990005B2B69817A81CB01A0E0B0E0880F991FC1
:1009A000AA1FBB1F880F991FAA1FBB1F880F991F63
:1009B000AA1FBB1F880F991FAA1FBB1F880F991F53
:1009C000AA1FBB1F880F991FAA1FBB1F282B392BDB
:1009D0004A2B5B2BC101A0E0B0E0072E79E0880F25
:1009E000991FAA1FBB1F7A95D1F7702D282B392B81
:1009F0004A2B5B2BC301A0E0B0E0072E7CE0880F00
:100A0000991FAA1FBB1F7A95D1F7702D282B392B60
:100A10004A2B5B2BC401A0E0B0E0072E7FE0880FDB
:100A2000991FAA1FBB1F7A95D1F7702D282B392B40
:100A30004A2B5B2BC501A0E0B0E0072E72E1880FC6
:100A4000991FAA1FBB1F7A95D1F7702D79018A01D2
:100A5000E82AF92A0A2B1B2B53948F8198854396F9
:100A600098878F8392E0591609F019CF20E030E083
:100A7000D801C701022E04C0B695A7959795879512
:100A80000A94D2F787709070A070B0700197A1059A
:100A9000B10519F020E030E006C02D5F3F4F253151
:100AA000310531F79601822F932F28960FB6F894CF
:100AB000DEBF0FBECDBFCF91DF911F910F91FF9091
:100AC000EF90DF90CF90BF90AF909F908F907F90EE
:100AD0006F905F903F902F900895CF93DF9380E6C3
:100AE00090E00E94290480E00E941D0281E00E94A3
:100AF0001D02C0E3D5E780E00E941D0280E063E0B4
:100B00000E94C30281E00E947002CE010197F1F7BA
:100B100081E00E941D0281E067E00E94C30280E044
:100B20000E947002CE010197F1F7E5CFF894FFCF54
:100B30000001000200030004000500060007020691
:100B40002121070001000200030004000500060047
:100B50000702072121073F065B4F666D7D077F6F08
:00000001FF
