:100000000C942A000C9447000C9447000C94470071
:100010000C9447000C9447000C9447000C94470044
:100020000C9447000C9447000C9447000C94470034
:100030000C9447000C9447000C9447000C94470024
:100040000C9447000C9447000C9447000C94470014
:100050000C94470011241FBECFE5D8E0DEBFCDBF12
:1000600011E0A0E6B0E0E8EEF3E202C005900D92E8
:10007000A03AB107D9F711E0A0EAB1E001C01D92A2
:10008000A13AB107E1F70E94740D0C94F2110C949F
:1000900000001ABA83E087BB8FEF84BB83E981BB82
:1000A00080EE8BBB8EED88BB89E585BB8EE582BB80
:1000B00081E090E00895843018F023E030E01AC029
:1000C000813069F0813038F0823069F0833079F026
:1000D00021E030E00FC06ABB21E030E00BC067BB1D
:1000E00021E030E007C064BB21E030E003C061BB29
:1000F00021E030E0822F932F0895843018F023E020
:1001000030E01AC0813069F0813038F0823069F017
:10011000833079F021E030E00FC06BBB21E030E0AC
:100120000BC068BB21E030E007C065BB21E030E0D8
:1001300003C062BB21E030E0822F932F089584300A
:1001400018F023E030E02AC0813089F0813038F0A7
:100150008230A9F08330D9F021E030E01FC0EBE31A
:10016000F0E080818095808321E030E017C0E8E3F3
:10017000F0E080818095808321E030E00FC0E5E3EE
:10018000F0E080818095808321E030E007C0E2E3E9
:10019000F0E080818095808321E030E0822F932FF2
:1001A0000895FB016115710519F422E030E023C0C8
:1001B000843018F023E030E01EC0813071F08130CF
:1001C00038F0823079F0833091F021E030E013C0D4
:1001D00089B3808321E030E00EC086B3808321E0C4
:1001E00030E009C083B3808321E030E004C080B3F5
:1001F000808321E030E0822F932F0895843008F02F
:100200007EC0683008F07BC0423008F078C0813092
:1002100029F1813040F08230E1F1833009F454C09B
:1002200021E030E06EC0EAE3F0E0208181E090E080
:10023000062E02C0880F991F0A94E2F78095822348
:1002400080832081842F90E002C0880F991F6A95D7
:10025000E2F7282B208321E030E053C0E7E3F0E011
:10026000208181E090E0062E02C0880F991F0A9439
:10027000E2F78095822380832081842F90E002C062
:10028000880F991F6A95E2F7282B208321E030E040
:1002900038C0E4E3F0E0208181E090E0062E02C067
:1002A000880F991F0A94E2F780958223808320812A
:1002B000842F90E002C0880F991F6A95E2F7282BDF
:1002C000208321E030E01DC0E1E3F0E0208181E007
:1002D00090E0062E02C0880F991F0A94E2F78095DD
:1002E000822380832081842F90E002C0880F991F91
:1002F0006A95E2F7282B208321E030E002C023E05A
:1003000030E0822F932F0895843008F07EC068304B
:1003100008F07BC0423008F078C0813029F181308C
:1003200040F08230E1F1833009F454C021E030E044
:100330006EC0EBE3F0E0208181E090E0062E02C089
:10034000880F991F0A94E2F7809582238083208189
:10035000842F90E002C0880F991F6A95E2F7282B3E
:10036000208321E030E053C0E8E3F0E0208181E029
:1003700090E0062E02C0880F991F0A94E2F780953C
:10038000822380832081842F90E002C0880F991FF0
:100390006A95E2F7282B208321E030E038C0E5E3BE
:1003A000F0E0208181E090E0062E02C0880F991FC6
:1003B0000A94E2F78095822380832081842F90E045
:1003C00002C0880F991F6A95E2F7282B208321E04D
:1003D00030E01DC0E2E3F0E0208181E090E0062EF5
:1003E00002C0880F991F0A94E2F7809582238083C8
:1003F0002081842F90E002C0880F991F6A95E2F750
:10040000282B208321E030E002C023E030E0822F5F
:10041000932F0895843008F04AC0683008F047C030
:100420008130C1F0813038F0823019F1833081F1B0
:1004300021E030E03EC0EBE3F0E0208181E090E09D
:1004400002C0880F991F6A95E2F72827208321E0D0
:1004500030E02FC0E8E3F0E0208181E090E002C0CE
:10046000880F991F6A95E2F72827208321E030E062
:1004700020C0E5E3F0E0208181E090E002C0880F39
:10048000991F6A95E2F72827208321E030E011C008
:10049000E2E3F0E0208181E090E002C0880F991F44
:1004A0006A95E2F72827208321E030E002C023E0AC
:1004B00030E0822F932F0895FA014115510519F468
:1004C00022E030E043C0843008F03EC0683008F0DD
:1004D0003BC08130A9F0813038F08230E9F08330C0
:1004E00039F121E030E032C089B390E002C0959547
:1004F00087956A95E2F78170808321E030E026C01D
:1005000086B390E002C0959587956A95E2F7817071
:10051000808321E030E01AC083B390E002C095955B
:1005200087956A95E2F78170808321E030E00EC004
:1005300080B390E002C0959587956A95E2F7817047
:10054000808321E030E002C023E030E0822F932F4F
:1005500008952F923F924F925F926F927F928F9267
:100560009F92AF92BF92CF92DF92EF92FF920F9342
:100570001F93DF93CF930F92CDB7DEB7898380E0CF
:1005800061E040E00E9484012C0180E066E040E0F0
:100590000E9484015C014981441F4427441F80E07C
:1005A00065E00E9484017C0149814295469546950B
:1005B0004370417080E064E00E9484011C01498125
:1005C000429546954770417080E063E00E94840147
:1005D0003C01498142954F70417080E062E00E9489
:1005E0008401AA0CBB1CAA0CBB1CAA0CBB1CCC24EF
:1005F000DD2400E010E0EE0CFF1C001F111FEE0CCC
:10060000FF1C001F111FEE0CFF1C001F111FEE0C22
:10061000FF1C001F111FEE0CFF1C001F111FEE0C12
:10062000FF1C001F111FAE28BF28C02AD12A92012B
:1006300040E050E0A22AB32AC42AD52A44245524F3
:10064000012E19E0220C331C441C551C1A95D1F7BD
:10065000102DA228B328C428D52888249924052E33
:100660005CE0660C771C881C991C5A95D1F7502DBC
:10067000A628B728C828D928A0E0B0E0072E7FE038
:10068000880F991FAA1FBB1F7A95D1F7702D1501EE
:100690002601282A392A4A2A5B2A8091A001882328
:1006A00009F480C080E066E041E00E94840100ED32
:1006B00017E0C8010197F1F780E066E040E00E9492
:1006C0008401C8010197F1F7498146954695469501
:1006D000417080E065E00E9484017C01498146957B
:1006E0004695417080E064E00E9484013C014981AC
:1006F0004695417080E063E00E9484015C0149817D
:10070000417080E062E00E94840100E010E0EE0CA5
:10071000FF1C001F111FEE0CFF1C001F111FEE0C11
:10072000FF1C001F111FEE0CFF1C001F111FEE0C01
:10073000FF1C001F111FEE0CFF1C001F111F88243F
:100740009924052E59E0660C771C881C991C5A9533
:10075000D1F7502DE628F72808291929E228F3288F
:1007600004291529CC24DD24092E9CE0AA0CBB1CED
:10077000CC1CDD1C9A95D1F7902DEA28FB280C297A
:100780001D29A0E0B0E0072E7FE0880F991FAA1F67
:10079000BB1F7A95D1F7702D17012801282A392A15
:1007A0004A2A5B2A20E030E0D201C101022E04C0B7
:1007B000B695A795979587950A94D2F7877090700C
:1007C000A070B0700197A105B10519F020E030E0EC
:1007D00019C02D5F3F4F2231310531F780E066E0CF
:1007E00041E00E94840100ED17E0C8010197F1F794
:1007F00080E066E040E00E948401C8010197F1F7C3
:1008000021E030E0822F932F0F90CF91DF911F9145
:100810000F91FF90EF90DF90CF90BF90AF909F909F
:100820008F907F906F905F904F903F902F900895A2
:100830001F93CF93DF93EC0180E060E041E00E94E2
:100840008401019719F020E030E014C088818823EA
:1008500019F421E030E00EC010E00E94A9029C01D2
:100860001F5FFE01E10FF11D8081882319F0213007
:10087000310599F3822F932FDF91CF911F91089526
:100880001F93182F80E060E040E00E9484010197F0
:1008900019F020E030E004C0812F0E94A9029C01E1
:1008A000822F932F1F9108951F93182F80E060E0EF
:1008B00041E00E948401019719F020E030E004C07B
:1008C000812F0E94A9029C01822F932F1F910895CE
:1008D000CF92DF92EF92FF920F931F93CF93DF930C
:1008E0007C01062F842F880F880F880F805C0E9460
:1008F0004004D82EC92E10E0E801CC0FDD1FCC0F2C
:10090000DD1FCC0FDD1F1C161D066CF410E0F70177
:10091000E10FF11D80810E9454041F5F812F90E040
:100920008C179D07A4F38FE80E94400484E00E9486
:1009300040048D2D9C2DDF91CF911F910F91FF9041
:10094000EF90DF90CF9008956F927F928F929F9259
:10095000AF92BF92CF92DF92EF92FF920F93DF930D
:10096000CF9300D0CDB7DEB7082F80E060E041E044
:100970000E9484013C01602F70E0882777FD8095FC
:10098000982F0E942B0F4B015C0120E030E040E0EB
:1009900050E00E949B0E882329F480E30E94A90264
:1009A0003C016EC0C02EDD24EE24FF24C501B4013D
:1009B00020E030E040E85FE30E94FB0E88236CF407
:1009C000C501B40120E030E040E050E00E94CB0ED1
:1009D00018161CF480E30E9454041C141D041E0409
:1009E0001F040CF04DC021E06216710409F048C0EC
:1009F0000FEF0F2EF0E6AF2EF0E0BF2EF02D0F5FC1
:100A0000802F992787FD9095F501E80FF91FFA834C
:100A1000E983C701B6012AE030E040E050E00E94DF
:100A20007E11E981FA816083C701B6012AE030E0D6
:100A300040E050E00E947E11822F932FA42FB52F0B
:100A40006C017D011C141D041E041F04C4F200234C
:100A5000BCF00F2EF0E6EF2EF0E0FF2EF02D802FF1
:100A6000992787FD9095F701E80FF91F8081805D38
:100A70000E94A9023C0101501AF08130910579F3DE
:100A8000862D972D0F900F90CF91DF910F91FF90B2
:100A9000EF90DF90CF90BF90AF909F908F907F901E
:100AA0006F90089580E060E040E00E94840101972B
:100AB00019F020E030E004C081E00E94A9029C010E
:100AC000822F932F08952F923F924F925F926F92B1
:100AD0007F928F929F92AF92BF92CF92DF92EF92CE
:100AE000FF920F931F93DF93CF93CDB7DEB76E972F
:100AF0000FB6F894DEBF0FBECDBF80E060E041E0EE
:100B00000E94FE009C8F8B8F80E061E041E00E949C
:100B1000FE008C0180E066E041E00E94FE009A8FBA
:100B2000898F80E062E041E00E94FE009E8F8D8F01
:100B300080E063E041E00E94FE00988F8F8B80E0B0
:100B400064E041E00E94FE009E8B8D8B80E065E0BA
:100B500041E00E94FE009C8B8B8B20E931E048EC49
:100B600050E0CA010197F1F721503040D1F780E001
:100B700060E040E00E948401019719F01A8A198A06
:100B800005C080E20E94A9029A8B898B80E060E018
:100B900040E00E948401019719F0188A1F8605C061
:100BA00080E20E94A902988B8F8780E060E040E09D
:100BB0000E948401019719F01E861D8605C080E8F9
:100BC0000E94A9029E878D8780ED97E00197F1F73B
:100BD00080E060E040E00E948401019719F01C86EB
:100BE0001B8605C080E00E94A9029C878B8780E05D
:100BF00060E040E00E948401019719F01A8619868E
:100C000005C080EC0E94A9029A87898780ED97E051
:100C10000197F1F780E060E040E00E9484010197D5
:100C200019F018861F8205C080E00E94A9029887EB
:100C30008F8380E060E040E00E948401019719F01A
:100C40001E821D8205C080E10E94A9029E838D83C1
:100C500080EA9FE00197F1F780E060E040E00E94C9
:100C60008401019719F01C821B8205C080E00E945C
:100C7000A9029C838B8380E060E040E00E948401B5
:100C8000019719F01A82198205C080E60E94A90214
:100C90009A8389835801CC24DD24EE24FF24870124
:100CA0002A2D3B2D4C2D5D2D6E2D7F2D802F912FCC
:100CB00003E00E941C0E922E832E742E652E562E5B
:100CC000472E382E292E898D9A8D5C01CC24DD2467
:100CD000EE24FF248701282F3B2D4C2D5D2D6E2DFA
:100CE0007F2D802F912F06E00E941C0E922A832ACE
:100CF000742A652A562A472A382A292AEB8DFC8D20
:100D00009F0140E050E060E070E080E090E09E2ACB
:100D1000832A742A652A562A472A382A292A8D8D39
:100D20009E8D5C01CC24DD24EE24FF248701282F36
:100D30003B2D4C2D5D2D6E2D7F2D802F912F09E0A9
:100D40000E941C0E922A832A742A652A562A472A50
:100D5000382A292AEF89F88D5F01CC24DD24EE247E
:100D6000FF2487012E2F3B2D4C2D5D2D6E2D7F2DC9
:100D7000802F912F0CE00E941C0E922A832A742A45
:100D8000652A562A472A382A292A8D899E895C0194
:100D9000CC24DD24EE24FF248701282F3B2D4C2D6D
:100DA0005D2D6E2D7F2D802F912F0FE00E941C0E48
:100DB000922A832A742A652A562A472A382A292AF7
:100DC000EB89FC895F01CC24DD24EE24FF2487011C
:100DD0002E2F3B2D4C2D5D2D6E2D7F2D802F912F95
:100DE00002E10E941C0E922A832A742A652A562A3E
:100DF000472A382A292A89899A895C01CC24DD244A
:100E0000EE24FF248701282F3B2D4C2D5D2D6E2DC8
:100E10007F2D802F912F05E10E941C0E922A832A9C
:100E2000742A652A562A472A382A292AEF85F889FA
:100E30005F01CC24DD24EE24FF2487012E2F3B2DDF
:100E40004C2D5D2D6E2D7F2D802F912F08E10E945E
:100E50001C0E922A832A742A652A562A472A382A7F
:100E6000292A8D859E855C01CC24DD24EE24FF2477
:100E70008701282F3B2D4C2D5D2D6E2D7F2D802F32
:100E8000912F0BE10E941C0E922A832A742A652A54
:100E9000562A472A382A292AEB85FC855F01CC246B
:100EA000DD24EE24FF2487012E2F3B2D4C2D5D2DBC
:100EB0006E2D7F2D802F912F0EE10E941C0E922A05
:100EC000832A742A652A562A472A382A292A898594
:100ED0009A855C01CC24DD24EE24FF248701282F91
:100EE0003B2D4C2D5D2D6E2D7F2D802F912F01E2FE
:100EF0000E941C0E922A832A742A652A562A472A9F
:100F0000382A292AEF81F8855F01CC24DD24EE24DC
:100F1000FF2487012E2F3B2D4C2D5D2D6E2D7F2D17
:100F2000802F912F04E20E941C0E922A832A742A99
:100F3000652A562A472A382A292A8D819E815C01F2
:100F4000CC24DD24EE24FF248701282F3B2D4C2DBB
:100F50005D2D6E2D7F2D802F912F07E20E941C0E9C
:100F6000922A832A742A652A562A472A382A292A45
:100F7000EB81FC815F01CC24DD24EE24FF2487017A
:100F80002E2F3B2D4C2D5D2D6E2D7F2D802F912FE3
:100F90000AE20E941C0E922A832A742A652A562A83
:100FA000472A382A292A89819A815C01CC24DD24A8
:100FB000EE24FF248701282F3B2D4C2D5D2D6E2D17
:100FC0007F2D802F912F0DE20E941C0E922A832AE2
:100FD000742A652A562A472A382A292A81E08093CA
:100FE000A001EE24FF2410E0292D382D472D562D89
:100FF000652D742D832D922D0E2D0E949D0D277031
:10100000213071F4112361F4112351F4112341F4BF
:10101000112331F4112321F4112311F4112319F0B8
:1010200020E030E00AC0E3E0F0E0EE0EFF1EF0E367
:10103000EF16F104C9F621E030E0822F932F6E966F
:101040000FB6F894DEBF0FBECDBFCF91DF911F91D9
:101050000F91FF90EF90DF90CF90BF90AF909F9057
:101060008F907F906F905F904F903F902F9008955A
:101070001F93162F813081F480E060E040E00E94F1
:101080008401019719F020E030E015C0812F8058CD
:101090000E94A9029C010FC080E060E040E00E9435
:1010A0008401019719F020E030E005C0812F8054C1
:1010B0000E94A9029C01822F932F1F9108958F9265
:1010C0009F92AF92BF92CF92DF92EF92FF920F93D7
:1010D0001F93823018F023E030E0FDC0282F30E06D
:1010E000F901EE0FFF1FCF01880F991F880F991F7D
:1010F000880F991FE80FF91FE20FF31FEE57FF4FFC
:10110000E081E73009F066C08901000F111FC801B6
:10111000880F991F880F991F880F991F080F191F93
:10112000020F131F00591F4FF8018081618140E0B9
:101130000E9484015C01F8018281638140E00E9489
:1011400084017C01F8018481658140E00E94840172
:101150006C01F8018681678140E00E948401882E3D
:10116000F8018085618540E00E948401982EF80195
:101170008285638540E00E948401EE0CFF1CEE0C2A
:10118000FF1CEE0CFF1C0024D694C7940794D69441
:10119000C7940794DC2CC02CEC28FD28EA28FB28F7
:1011A000382D330F20E0E22AF32A392D3295307F93
:1011B00020E0E22AF32A382F37953327379520E0AD
:1011C0004701822A932AF8018485658540E00E94C0
:1011D00084016AC0E63019F024E030E07CC0890167
:1011E000000F111FC801880F991F880F991F880FC2
:1011F000991F080F191F020F131F00591F4FF801E5
:101200008081618141E00E9484015C01F80182815A
:10121000638141E00E9484017C01F8018481658141
:1012200041E00E9484016C01F8018681678141E000
:101230000E948401882EF8018085618541E00E942A
:101240008401982EF8018285638541E00E94840123
:10125000EE0CFF1CEE0CFF1CEE0CFF1C0024D694C1
:10126000C7940794D694C7940794DC2CC02CEC2820
:10127000FD28EA28FB28382D330F20E0E22AF32A44
:10128000392D3295307F20E0E22AF32A382F379526
:101290003327379520E04701822A932AF801848575
:1012A000658541E00E94840120E030E0C401022E07
:1012B00002C0969587950A94E2F78770907001971F
:1012C00019F020E030E007C02D5F3F4F2531310598
:1012D00069F721E030E0822F932F1F910F91FF904B
:1012E000EF90DF90CF90BF90AF909F908F90089538
:1012F000823018F023E030E04EC0282F30E0F901B2
:10130000EE0FFF1FCF01880F991F880F991F880FBD
:10131000991FE80FF91FE20FF31FE058FF4F4081BC
:101320004132B9F1F901EE0FFF1FCF01880F991F6C
:10133000880F991F880F991FE80FF91FE20FF31FFD
:10134000EF57FF4F6081613221F1F901EE0FFF1F6E
:10135000CF01880F991F880F991F880F991FE80FD9
:10136000F91FE20FF31FEE57FF4F8081873031F4F2
:10137000842F40E00E9484019C010DC0863019F04A
:1013800024E030E008C0842F41E00E9484019C01E9
:1013900002C025E030E0822F932F0895823018F0AC
:1013A00023E030E04EC0282F30E0F901EE0FFF1FA0
:1013B000CF01880F991F880F991F880F991FE80F79
:1013C000F91FE20FF31FE058FF4F40814132B9F19E
:1013D000F901EE0FFF1FCF01880F991F880F991F8A
:1013E000880F991FE80FF91FE20FF31FEF57FF4F08
:1013F0006081613221F1F901EE0FFF1FCF01880FEB
:10140000991F880F991F880F991FE80FF91FE20F86
:10141000F31FEE57FF4F8081873031F4842F41E076
:101420000E9484019C010DC0863019F024E030E058
:1014300008C0842F40E00E9484019C0102C025E086
:1014400030E0822F932F0895823018F023E030E0AF
:101450004BC0282F30E0F901EE0FFF1FCF01880F9E
:10146000991F880F991F880F991FE80FF91FE20F26
:10147000F31FE258FF4F40814132A1F1F901EE0F15
:10148000FF1FCF01880F991F880F991F880F991F81
:10149000E80FF91FE20FF31FE158FF4F608161323F
:1014A00009F1F901EE0FFF1FCF01880F991F880F77
:1014B000991F880F991FE80FF91FE20FF31FEE57CE
:1014C000FF4F8081873031F4842F41E00E948401F6
:1014D0009C010AC0863031F4842F40E00E948401D0
:1014E0009C0102C024E030E0822F932F08958230C7
:1014F00018F023E030E04BC0282F30E0F901EE0F68
:10150000FF1FCF01880F991F880F991F880F991F00
:10151000E80FF91FE20FF31FE258FF4F40814132FD
:10152000A1F1F901EE0FFF1FCF01880F991F880F5E
:10153000991F880F991FE80FF91FE20FF31FE15859
:10154000FF4F6081613209F1F901EE0FFF1FCF01FA
:10155000880F991F880F991F880F991FE80FF91F8F
:10156000E20FF31FEE57FF4F8081873031F4842F55
:1015700040E00E9484019C010AC0863031F4842F2F
:1015800041E00E9484019C0102C024E030E0822FEF
:10159000932F08955F926F927F928F929F92AF9256
:1015A000BF92CF92DF92EF92FF920F931F936A3018
:1015B00008F044C1823008F041C1282F30E0F90121
:1015C000EE0FFF1FCF01880F991F880F991F880FFB
:1015D000991FE80FF91FE20FF31FEE57FF4FE0814D
:1015E000E73009F084C0E6E9F0E0E60FF11DB080D5
:1015F0008901000F111FC801880F991F880F991FBB
:10160000880F991F080F191F020F131F00591F4F32
:101610004B2D4170F801808161810E9484014C0151
:101620004B2D46954170F801828163810E948401AF
:101630007C014B2D469546954170F801848165816A
:101640000E9484016C014B2D46954695469541704C
:10165000F801868167810E948401782E4B2D429586
:101660004F704170F801808561850E948401A82E29
:101670004B2D4295469547704170F80182856385F0
:101680000E948401EE0CFF1CEE0CFF1CEE0CFF1CF4
:101690000024D694C7940794D694C7940794DC2C5E
:1016A000C02CEC28FD28E828F928372D330F20E03E
:1016B000E22AF32A3A2D3295307F20E0E22AF32AFB
:1016C000382F37953327379520E04701822A932A10
:1016D000B694B694B694B694B694B694F1E0BF229C
:1016E000F801848565854B2D0E9484018FC0E6300A
:1016F00019F024E030E0A4C0E6E9F0E0E60FF11DC7
:1017000050808901000F111FC801880F991F880F91
:10171000991F880F991F080F191F020F131F0059D7
:101720001F4FCC24DD24C394452D4C254170F80176
:10173000808161810E9484013C01452D46954C25A4
:101740004170F801828163810E9484017C01452DF2
:10175000469546954C254170F801848165810E942B
:1017600084015C01452D4695469546954C25417072
:10177000F801868167810E948401882E452D42955B
:101780004F704C254170F801808561850E9484016D
:10179000982E452D4295469547704C254170F8018D
:1017A000828563850E948401EE0CFF1CEE0CFF1CF9
:1017B000EE0CFF1C0024B694A7940794B694A7944B
:1017C0000794BA2CA02CEA28FB28E628F728382D05
:1017D000330F20E0E22AF32A392D3295307F20E0C2
:1017E000E22AF32A382F37953327379520E047012F
:1017F000822A932A452D42954695469543704C255D
:101800004170F801848565850E94840120E030E004
:10181000C401022E02C0969587950A94E2F787705C
:101820009070019719F020E030E00AC02D5F3F4F23
:101830002531310569F721E030E002C023E030E0D6
:10184000822F932F1F910F91FF90EF90DF90CF90F9
:10185000BF90AF909F908F907F906F905F90089512
:101860002F923F925F926F927F928F929F92AF9250
:10187000BF92CF92DF92EF92FF920F931F93DF936D
:10188000CF93CDB7DEB728970FB6F894DEBF0FBE63
:10189000CDBF009719F422E030E00CC198878F8308
:1018A000CC24DD245524EE24FF248701EF81F88524
:1018B0008081618141E00E94FE009E838D83EF81E3
:1018C000F8858281638141E00E94FE009C838B83C6
:1018D000EF81F8858481658141E00E94FE009A8352
:1018E0008983EF81F8858681678141E00E94FE004F
:1018F0001C01EF81F8858085618541E00E94FE0032
:101900003C01EF81F8858285638541E00E94FE00FD
:101910004C01EF81F8858485658541E00E94FE00D9
:101920005C01EF81F8858685813239F06785613207
:1019300021F041E00E94FE006C01F1E0CF16D104DD
:1019400009F0B7C0EF81F8858089813259F061894B
:10195000613241F041E00E94FE009C01813091051E
:1019600009F0A8C06D817E819B0140E050E02E29E6
:101970003F29402B512BEB81FC81CF01A0E0B0E04F
:10198000880F991FAA1FBB1F880F991FAA1FBB1F73
:10199000880F991FAA1FBB1F282B392B4A2B5B2BA3
:1019A00069817A81CB01A0E0B0E0880F991FAA1F5E
:1019B000BB1F880F991FAA1FBB1F880F991FAA1F43
:1019C000BB1F880F991FAA1FBB1F880F991FAA1F33
:1019D000BB1F880F991FAA1FBB1F282B392B4A2B0F
:1019E0005B2BC101A0E0B0E0072E79E0880F991FC2
:1019F000AA1FBB1F7A95D1F7702D282B392B4A2BA4
:101A00005B2BC301A0E0B0E0072E7CE0880F991F9C
:101A1000AA1FBB1F7A95D1F7702D282B392B4A2B83
:101A20005B2BC401A0E0B0E0072E7FE0880F991F78
:101A3000AA1FBB1F7A95D1F7702D282B392B4A2B63
:101A40005B2BC501A0E0B0E0072E72E1880F991F63
:101A5000AA1FBB1F7A95D1F7702D79018A01E82A58
:101A6000F92A0A2B1B2B53948F81988543969887CC
:101A70008F8392E0591609F019CF20E030E0D801A9
:101A8000C701022E04C0B695A795979587950A942D
:101A9000D2F787709070A070B0700197A105B10562
:101AA00019F020E030E006C02D5F3F4F25313105B1
:101AB00031F79601822F932F28960FB6F894DEBF48
:101AC0000FBECDBFCF91DF911F910F91FF90EF908F
:101AD000DF90CF90BF90AF909F908F907F906F904E
:101AE0005F903F902F900895CF93DF9380E790E031
:101AF0000E94300C80E00E94240A81E00E94240AA7
:101B0000C0E3D5E780E00E94240A80E063E00E9401
:101B1000CA0A81E00E94770ACE010197F1F781E0BD
:101B20000E94240A81E067E00E94CA0A80E00E94C5
:101B3000770ACE010197F1F7E5CFEF92FF920F936D
:101B4000DF93CF93CDB7DEB760970FB6F894DEBFC3
:101B50000FBECDBFA82F002309F461C07E010894F9
:101B6000E11CF11C88E0F70111928A95E9F72983BD
:101B70003A834B835C836D837E83AF83988780E257
:101B8000801BE82FFF27E7FDF0954D815E816F8177
:101B90007885181684F01D861E861F86188A882769
:101BA00099278E1B9F0B04C076956795579547958F
:101BB0008A95D2F728C0202F332727FD3095DB01E7
:101BC000CA01022E04C0B695A795979587950A94E9
:101BD000D2F78D879E87AF87B88B04C0440F551FFF
:101BE000661F771FEA95D2F789819A81AB81BC8104
:101BF00004C0B695A795979587952A95D2F7482B57
:101C0000592B6A2B7B2B49875A876B877C872985C1
:101C10003A854B855C856D857E85AF8598898A2F51
:101C200060960FB6F894DEBF0FBECDBFCF91DF91A7
:101C30000F91FF90EF900895EF92FF920F93DF9333
:101C4000CF93CDB7DEB760970FB6F894DEBF0FBE67
:101C5000CDBFA82F002309F461C07E010894E11CC8
:101C6000F11C88E0F70111928A95E9F729833A83FC
:101C70004B835C836D837E83AF83988780E2801B78
:101C8000E82FFF27E7FDF09549815A816B817C8120
:101C9000181684F019861A861B861C8688279927B1
:101CA0008E1B9F0B04C0440F551F661F771F8A951C
:101CB000D2F728C0202F332727FD3095DB01CA013A
:101CC000022E04C0880F991FAA1FBB1F0A94D2F7C7
:101CD00089879A87AB87BC8704C0769567955795A7
:101CE0004795EA95D2F78D819E81AF81B88504C072
:101CF000880F991FAA1FBB1F2A95D2F7482B592B73
:101D00006A2B7B2B4D875E876F87788B29853A8579
:101D10004B855C856D857E85AF8598898A2F609619
:101D20000FB6F894DEBF0FBECDBFCF91DF910F91FC
:101D3000FF90EF900895A8E1B0E0E1EAFEE00C9496
:101D4000C71169837A838B839C832D833E834F8362
:101D5000588789E0E82EF12CEC0EFD1ECE0101968D
:101D6000B7010E94AD108E010F5E1F4FCE01059688
:101D7000B8010E94AD108985823040F08989823097
:101D800028F0C701B8010E94251101C081E06896C2
:101D9000E6E00C94E311A8E1B0E0E1EDFEE00C9484
:101DA000C71169837A838B839C832D833E834F8302
:101DB000588789E0E82EF12CEC0EFD1ECE0101962D
:101DC000B7010E94AD108E010F5E1F4FCE01059628
:101DD000B8010E94AD108985823040F08989823037
:101DE00028F0C701B8010E94251101C08FEF689645
:101DF000E6E00C94E311A8E1B0E0E1E0FFE00C9430
:101E0000C71169837A838B839C832D833E834F83A1
:101E1000588789E0E82EF12CEC0EFD1ECE010196CC
:101E2000B7010E94AD108E010F5E1F4FCE010596C7
:101E3000B8010E94AD108985823040F089898230D6
:101E400028F0C701B8010E94251101C081E0689601
:101E5000E6E00C94E311A8E0B0E0E1E3FFE00C94CD
:101E6000C4119B01AC0183E08983DA01C901882791
:101E7000B7FD83959927AA27BB27B82E21153105D1
:101E80004105510519F482E089833AC08823A9F0FD
:101E9000203080E0380780E0480780E8580729F4C0
:101EA00060E070E080E09FEC30C0EE24FF2487010A
:101EB000E21AF30A040B150B02C079018A018EE1C4
:101EC000C82ED12CDC82CB82ED82FE820F83188754
:101ED000C801B7010E94890F01971816190684F4EA
:101EE000082E04C0EE0CFF1C001F111F0A94D2F72D
:101EF000ED82FE820F831887C81AD90ADC82CB8252
:101F0000BA82CE0101960E94D80F2896E9E00C947F
:101F1000E011EF92FF920F931F937B018C0180E001
:101F2000E81680E0F80681E0080780E0180788F4EA
:101F30008FEFE816F1040105110531F028F088E073
:101F400090E0A0E0B0E017C080E090E0A0E0B0E05A
:101F500012C080E0E81680E0F80680E0080781E023
:101F6000180728F088E190E0A0E0B0E004C080E12C
:101F700090E0A0E0B0E020E230E040E050E0281B3C
:101F8000390B4A0B5B0B04C016950795F794E79441
:101F90008A95D2F7F701E056FF4F8081281B31095F
:101FA00041095109C9011F910F91FF90EF900895C8
:101FB000DF92EF92FF920F931F93FC01E480F58074
:101FC00006811781D1808081823048F480E090E0E2
:101FD000A0E1B0E0E82AF92A0A2B1B2BA5C0843027
:101FE00009F49FC0823021F4EE24FF24870105C04C
:101FF000E114F1040105110519F4E0E0F0E096C0E8
:10200000628173819FEF623879070CF05BC022E830
:102010003FEF261B370B2A3131052CF020E030E052
:1020200040E050E02AC0B801A701022E04C0769516
:102030006795579547950A94D2F781E090E0A0E024
:10204000B0E004C0880F991FAA1FBB1F2A95D2F7C2
:102050000197A109B1098E219F21A023B1230097E7
:10206000A105B10521F081E090E0A0E0B0E09A0187
:10207000AB01282B392B4A2B5B2BDA01C9018F7757
:102080009070A070B07080349105A105B10539F44D
:1020900027FF09C0205C3F4F4F4F5F4F04C0215CBA
:1020A0003F4F4F4F5F4FE0E0F0E02030A0E03A07B5
:1020B000A0E04A07A0E45A0710F0E1E0F0E079015F
:1020C0008A0127C06038710564F5FB01E158FF4FB4
:1020D000D801C7018F779070A070B07080349105DF
:1020E000A105B10539F4E7FE0DC080E490E0A0E061
:1020F000B0E004C08FE390E0A0E0B0E0E80EF91E8D
:102100000A1F1B1F17FF05C016950795F794E79444
:10211000319687E016950795F794E7948A95D1F75D
:1021200005C0EE24FF248701EFEFF0E06E2F6795E6
:1021300066276795902F9F77D794DD24D7948E2FAD
:102140008695492F462B582F5D29B701CA011F914B
:102150000F91FF90EF90DF900895FC01DB0140812B
:1021600051812281622F6F7770E0221F2227221F68
:102170009381892F880F822B282F30E0991F992770
:10218000991F11969C93119721153105A9F54115B9
:1021900051056105710511F482E037C082E89FEFB7
:1021A00013969C938E9312979A01AB0167E0220FCE
:1021B000331F441F551F6A95D1F783E08C930DC0E0
:1021C000220F331F441F551F12968D919C91139718
:1021D000019713969C938E931297203080E03807D6
:1021E00080E0480780E4580758F314962D933D93F8
:1021F0004D935C93179708952F3F310579F441155E
:1022000051056105710519F484E08C93089564FF0C
:1022100003C081E08C9312C01C9210C02F57304035
:1022200013963C932E93129783E08C9387E0440F90
:10223000551F661F771F8A95D1F7706414964D93CA
:102240005D936D937C93179708951F93DC01FB01B9
:102250009C91923008F447C08081823008F443C0DA
:10226000943051F411961C91843099F58181682F36
:1022700070E0611B71093FC0843021F0923031F46D
:102280008230B9F18181882389F12DC011961C918A
:1022900011978230F1F081811817D9F412962D919F
:1022A0003C911397828193818217930794F02817AA
:1022B0003907BCF014968D919D910D90BC91A02D85
:1022C0002481358146815781281739074A075B07E2
:1022D00018F4112341F00AC082179307A407B50729
:1022E00040F4112319F061E070E005C06FEF7FEF5B
:1022F00002C060E070E0CB011F91089597FB092EAA
:1023000005260ED057FD04D014D00AD0001C38F496
:1023100050954095309521953F4F4F4F5F4F089511
:10232000F6F790958095709561957F4F8F4F9F4FF1
:102330000895A1E21A2EAA1BBB1BFD010DC0AA1F06
:10234000BB1FEE1FFF1FA217B307E407F50720F01E
:10235000A21BB30BE40BF50B661F771F881F991F99
:102360001A9469F760957095809590959B01AC01E2
:10237000BD01CF0108952F923F924F925F926F92CD
:102380007F928F929F92AF92BF92CF92DF92EF9205
:10239000FF920F931F93CF93DF93CDB7DEB7CA1B86
:1023A000DB0B0FB6F894DEBF0FBECDBF09942A88B1
:1023B000398848885F846E847D848C849B84AA8459
:1023C000B984C884DF80EE80FD800C811B81AA81E6
:1023D000B981CE0FD11D0FB6F894DEBF0FBECDBFB1
:0823E000ED010895F894FFCF10
:1023E80030000000000000000000000000000000B5
:1023F80000010002000300040005000600070206B1
:102408002121070001000200030004000500060066
:102418000702072121073F065B4F666D7D077F6F27
:102428000001020203030303040404040404040473
:102438000505050505050505050505050505050544
:102448000606060606060606060606060606060624
:102458000606060606060606060606060606060614
:1024680007070707070707070707070707070707F4
:1024780007070707070707070707070707070707E4
:1024880007070707070707070707070707070707D4
:1024980007070707070707070707070707070707C4
:1024A80008080808080808080808080808080808A4
:1024B8000808080808080808080808080808080894
:1024C8000808080808080808080808080808080884
:1024D8000808080808080808080808080808080874
:1024E8000808080808080808080808080808080864
:1024F8000808080808080808080808080808080854
:102508000808080808080808080808080808080843
:102518000808080808080808080808080808080833
:00000001FF
